:020000040800F2
:1000000068060020A1010008A9010008AB01000852
:10001000AD010008AF010008B101000800000000B8
:10002000000000000000000000000000B301000814
:10003000B501000800000000B7010008B901000880
:10004000BB010008BB010008BB010008BB010008A0
:10005000BB010008BB010008BB010008BB01000890
:10006000BB010008BB010008BB010008BB01000880
:10007000BB010008BB010008BB010008BB01000870
:10008000BB010008BB010008BB0100080000000024
:10009000000000000000000000000000BB0100089C
:1000A000BB010008BB010008BB010008BB01000840
:1000B000BB010008D505000801060008BB010008C7
:1000C000BB010008BB010008BB010008BB01000820
:1000D000BB010008BB010008BB010008BB01000810
:1000E000BB010008BB010008BB01000800000000C4
:1000F0000000000000000000000000000000000000
:1001000000000000000000000000000000000000EF
:100110000000000000000000BB010008BB01000857
:1001200000F002F800F02CF80AA090E8000C8244DD
:100130008344AAF10107DA4501D100F021F8AFF2BA
:10014000090EBAE80F0013F0010F18BFFB1A43F0B5
:100150000103184720080000300800000023002495
:1001600000250026103A28BF78C1FBD8520728BFC7
:1001700030C148BF0B6070471FB51FBD10B510BD23
:1001800000F031F81146FFF7F7FF00F043FB00F0F5
:100190004FF803B4FFF7F2FF03BC00F057F800007C
:1001A0000948804709480047FEE7FEE7FEE7FEE70B
:1001B000FEE7FEE7FEE7FEE7FEE7FEE70448054947
:1001C000054A064B70470000610500082101000840
:1001D00068000020680600206802002068020020F5
:1001E000704770477047754600F02CF8AE46050022
:1001F0006946534620F00700854618B020B5FFF742
:10020000DDFFBDE820404FF000064FF000074FF043
:1002100000084FF0000BAC46ACE8C009ACE8C009E0
:10022000ACE8C009ACE8C00921F007018D46704771
:1002300010B50446AFF300802046BDE81040FFF73C
:10024000A8BF0000004870470000002001491820A6
:10025000ABBEFEE726000200704700002DE9F0412A
:10026000CA7802F00F0CD30644BF8B784CEA030C1B
:1002700009880B0621D0056800234FF001084FF0D4
:100280000F0E002608E000BF282A08BF476101368C
:10029000082E03F104030FD008FA06F70F42F6D038
:1002A0000EFA03F425EA04040CFA03F5482A45EA99
:1002B0000405E9D10761EAE70560B1F5807F38BF41
:1002C000BDE8F081446800234FF4807E4FF00F08B2
:1002D000002607E0282A08BF47610136082E03F1EF
:1002E000040310D00EFA06F707EA0105BD42F4D167
:1002F00008FA03F5AC430CFA03F5482A44EA05046E
:10030000E8D10761E9E74460BDE8F0818068084012
:1003100018BF0120704700004161704701617047BC
:1003200084B003900020029001900F200090039869
:10033000C078C0B3FFE74EF60C50CEF20000006864
:10034000C043C0F3022002900298C0F10400019063
:1003500000980299C840009003984078019988401D
:100360000290039880780099014002980843029017
:100370000298000102900298039909784EF2004217
:10038000CEF2000288540398027802F01F01012087
:1003900088404EF20011CEF2000141EAD20121F074
:1003A000030108600FE00398027802F01F010120AA
:1003B00088404EF28011CEF2000141EAD20121F0D4
:1003C00003010860FFE704B07047000081B00090AF
:1003D00000980021C0F2FA5108434EF60C51CEF2BB
:1003E0000001086001B0704782B001908DF80310E1
:1003F0009DF8030048B1FFE7019A41F21C01C4F2E5
:10040000020108681043086008E0019A41F21C01EB
:10041000C4F20201086890430860FFE702B0704729
:1004200082B001908DF803109DF8030048B1FFE7FA
:10043000019A41F21801C4F20201086810430860F1
:1004400008E0019A41F21801C4F2020108689043E1
:100450000860FFE702B0704780B500F001F880BD8A
:1004600084B000200390029041F20001C4F2020126
:10047000086840F480300860FFE741F20000C4F2F1
:100480000200006800F400300290039801300390ED
:10049000FFE702990020019039B9FFE70398B0F512
:1004A000A06018BF01200190FFE70198C007002855
:1004B000E3D1FFE741F20000C4F2020000688003CC
:1004C000002803D5FFE70120029002E000200290FF
:1004D000FFE7029801283FD1FFE741F20401C4F28F
:1004E00002010091086808600868086008680860F0
:1004F000086820F47C100860086840F498100860D0
:1005000041F20001C4F20201086840F08070086006
:10051000FFE741F20000C4F20200006880010028F9
:1005200001D4FFE7F5E741F20401C4F202010868D3
:1005300020F003000860086840F002000860FFE750
:1005400041F20400C4F20200006800F00C00082828
:1005500001D0FFE7F4E700E0FFE704B070470000D8
:1005600080B541F20002C4F20202106840F00100BE
:10057000106041F20401C4F2020108680023CFF6C2
:10058000FF031840086010684FF6FF73CFF6F6635C
:1005900018401060106820F480201060086820F473
:1005A000FE00086041F20801C4F202014FF41F008E
:1005B000086041F22C01C4F2020100200860FFF73C
:1005C0004BFF4EF60851CEF200014FF0006008607C
:1005D00080BD000080B582B00120019000F0A2F93A
:1005E000019940F20040C4F2000000F01DF840F212
:1005F0006001C2F2000108880130088002B080BDAD
:1006000080B5022000F08EF940F60000C4F2000030
:10061000012100F009F840F26201C2F200010888ED
:100620000130088080BD000082B00190ADF802105A
:10063000BDF80200C0430199088202B07047000073
:1006400082B001908DF803109DF8030030B1FFE7F0
:100650000199088840F00100088005E001990888A8
:1006600020F001000880FFE702B0704782B00190DF
:10067000ADF802108DF801209DF8010038B1FFE7B8
:10068000BDF80220019988891043888106E0BDF8F1
:1006900002200199888990438881FFE702B0704762
:1006A00083B0029001910020ADF80200029800880A
:1006B000ADF80200029842F60041C4F201018842FE
:1006C00025D0FFE7029843F20041C4F201018842BD
:1006D0001DD0FFE70298B0F1804F18D0FFE70298D5
:1006E00040F20041C4F20001884210D0FFE70298B6
:1006F00040F60001C4F20001884208D0FFE70298EA
:1007000040F60041C4F2000188420ED1FFE7BDF877
:10071000020020F07000ADF8020001984188BDF899
:1007200002000843ADF80200FFE7029841F2000121
:10073000C4F20001884216D0FFE7029841F200415E
:10074000C4F2000188420ED0FFE7BDF8020020F499
:100750004070ADF802000198C188BDF8020008435E
:10076000ADF80200FFE7BDF8020002990880019889
:1007700080880299888501980088029908850298E6
:1007800042F60041C4F20101884220D0FFE70298FE
:1007900043F20041C4F20101884218D0FFE70298F9
:1007A00044F20001C4F20101884210D0FFE7029830
:1007B00044F20041C4F20101884208D0FFE70298E8
:1007C00044F60001C4F20101884205D1FFE7019817
:1007D000007A02990886FFE702990120888203B017
:1007E0007047000080B582B008200121FFF718FE95
:1007F00010208DF807000320ADF804008DF80600E6
:1008000040F60040C4F2010001A9FFF727FD02B045
:1008100080BD000080B582B000200190FFF7E2FFAC
:1008200000F03AF800F002F8FFE7FEE780B584B088
:100830004FF4C060FFF7CAFD1D208DF80C000122A7
:1008400001928DF80F20002000908DF80D008DF89A
:100850000E0040F20040C4F200001146FFF706FF10
:1008600003A80290FFF75CFD0098019A1E218DF805
:100870000C108DF80F208DF80D208DF80E0040F62D
:100880000000C4F200001146FFF7F0FE0298FFF7E7
:1008900047FD04B080BD000080B58AB00220012170
:1008A0000691FFF7A1FD06990420FFF79DFD0020AA
:1008B0000390ADF82200ADF81E0041F26F71029175
:1008C000ADF8201040F2E731ADF81C108DF824008F
:1008D00040F20040C4F20000019007A90491FFF724
:1008E000DFFE01980699FFF7ABFE029A0398049980
:1008F000ADF82200ADF81E00ADF8202040F69F7242
:10090000ADF81C208DF8240040F60000C4F2000071
:100910000590FFF7C5FE05980699FFF791FE0AB00E
:1009200080BD000080B582B0ADF80600BDF80610AD
:1009300040F60040C4F20100FFF7E8FCADF8040007
:10094000BDF80400012809D1FFE7BDF8061040F604
:100950000040C4F20100FFF7DFFC08E0BDF806101C
:1009600040F60040C4F20100FFF7D8FCFFE702B0F8
:1009700080BD000084090008000000206806000017
:040980005C0100080E
:04000005080001A14D
:00000001FF
