:020000040800F2
:1000000060060020A1010008A9010008AB0100085A
:10001000AD010008AF010008B101000800000000B8
:10002000000000000000000000000000B301000814
:10003000B501000800000000B7010008B901000880
:10004000BB010008BB010008BB010008BB010008A0
:10005000BB010008BB010008BB010008BB01000890
:10006000BB010008BB010008BB010008BB01000880
:10007000BB010008BB010008BB010008BB01000870
:10008000BB010008BB010008BB0100080000000024
:10009000000000000000000000000000BB0100089C
:1000A000BB010008BB010008BB010008BB01000840
:1000B000BB010008D9060008BB010008BB0100080D
:1000C000BB010008BB010008BB010008BB01000820
:1000D000BB010008BB010008BB010008BB01000810
:1000E000BB010008BB010008BB01000800000000C4
:1000F0000000000000000000000000000000000000
:1001000000000000000000000000000000000000EF
:100110000000000000000000BB010008BB01000857
:1001200000F002F800F02CF80AA090E8000C8244DD
:100130008344AAF10107DA4501D100F021F8AFF2BA
:10014000090EBAE80F0013F0010F18BFFB1A43F0B5
:100150000103184750080000600800000023002435
:1001600000250026103A28BF78C1FBD8520728BFC7
:1001700030C148BF0B6070471FB51FBD10B510BD23
:1001800000F031F81146FFF7F7FF00F0A7FB00F091
:100190004FF803B4FFF7F2FF03BC00F057F800007C
:1001A0000948804709480047FEE7FEE7FEE7FEE70B
:1001B000FEE7FEE7FEE7FEE7FEE7FEE70448054947
:1001C000054A064B7047000065060008210100083B
:1001D0006000002060060020600200206002002015
:1001E000704770477047754600F02CF8AE46050022
:1001F0006946534620F00700854618B020B5FFF742
:10020000DDFFBDE820404FF000064FF000074FF043
:1002100000084FF0000BAC46ACE8C009ACE8C009E0
:10022000ACE8C009ACE8C00921F007018D46704771
:1002300010B50446AFF300802046BDE81040FFF73C
:10024000A8BF0000004870470000002001491820A6
:10025000ABBEFEE7260002007047000088B00790A2
:100260000691002005900490039002900190009068
:100270000698C07800F00F0005900698C078C00678
:10028000002806D5FFE70698817805980843059071
:10029000FFE70698007800284BD0FFE70798006832
:1002A000019000200390FFE7039807283DD8FFE75F
:1002B000039901208840029006980088029908401E
:1002C00004900498029988422AD1FFE7039880009D
:1002D000029002990F20884000900099019888436D
:1002E00001900598029900FA01F1019808430190E4
:1002F0000698C078282806D1FFE703990120884096
:10030000079948610BE00698C078482806D1FFE7B6
:1003100003990120884007990861FFE7FFE7FFE79D
:10032000FFE7039801300390BEE701980799086042
:10033000FFE706980088B0F5807F50DBFFE707985D
:100340004068019000200390FFE70398072842D8F7
:10035000FFE7039800F10801012088400290069809
:1003600000880299084004900498029988422DD18F
:10037000FFE703988000029002990F2088400090C8
:1003800000990198884301900598029900FA01F1BB
:100390000198084301900698C078282808D1FFE703
:1003A000039800F108010120884007994861FFE7A0
:1003B0000698C078482808D1FFE7039800F10801A3
:1003C0000120884007990861FFE7FFE7FFE70398EE
:1003D00001300390B9E7019807994860FFE708B03A
:1003E0007047000082B00190ADF8021000208DF837
:1003F000010001988068BDF80210084204D0FFE7B0
:1004000001208DF8010003E000208DF80100FFE7D6
:100410009DF8010002B0704782B00190ADF8021063
:10042000BDF802000199486102B0704782B00190A6
:10043000ADF80210BDF802000199086102B07047E2
:1004400084B003900020029001900F200090039848
:10045000C078C0B3FFE74EF60C50CEF20000006843
:10046000C043C0F3022002900298C0F10400019042
:1004700000980299C84000900398407801998840FC
:1004800002900398807800990140029808430290F6
:100490000298000102900298039909784EF20042F6
:1004A000CEF2000288540398027802F01F01012066
:1004B00088404EF20011CEF2000141EAD20121F053
:1004C000030108600FE00398027802F01F01012089
:1004D00088404EF28011CEF2000141EAD20121F0B3
:1004E00003010860FFE704B07047000082B001908C
:1004F0008DF803109DF8030048B1FFE7019A41F21F
:100500001C01C4F2020108681043086008E0019A67
:1005100041F21C01C4F20201086890430860FFE741
:1005200002B0704782B001908DF803109DF803006F
:1005300048B1FFE7019A41F21801C4F202010868CC
:100540001043086008E0019A41F21801C4F2020168
:10055000086890430860FFE702B0704780B500F07C
:1005600001F880BD84B000200390029041F20001A8
:10057000C4F20201086840F480300860FFE741F2ED
:100580000000C4F20200006800F4003002900398FA
:1005900001300390FFE702990020019039B9FFE78D
:1005A0000398B0F5A06018BF01200190FFE7019803
:1005B000C0070028E3D1FFE741F20000C4F20200C7
:1005C00000688003002803D5FFE70120029002E0C5
:1005D00000200290FFE7029801283FD1FFE741F297
:1005E0000401C4F20201009108680860086808600C
:1005F00008680860086820F47C100860086840F407
:100600009810086041F20001C4F20201086840F04D
:1006100080700860FFE741F20000C4F20200006849
:100620008001002801D4FFE7F5E741F20401C4F29C
:100630000201086820F003000860086840F002002A
:100640000860FFE741F20400C4F20200006800F015
:100650000C00082801D0FFE7F4E700E0FFE704B052
:100660007047000080B541F20002C4F20202106837
:1006700040F00100106041F20401C4F20201086878
:100680000023CFF6FF031840086010684FF6FF7391
:10069000CFF6F66318401060106820F480201060D8
:1006A000086820F4FE00086041F20801C4F202016B
:1006B0004FF41F00086041F22C01C4F20201002037
:1006C0000860FFF74BFF4EF60851CEF200014FF0E5
:1006D0000060086080BD000080B500F041F940F284
:1006E0000040C4F20000012100F002F880BD0000CB
:1006F00082B00190ADF80210BDF80200C04301992C
:10070000088202B07047000082B001908DF803109B
:100710009DF8030030B1FFE70199088840F001001F
:10072000088005E00199088820F001000880FFE7B3
:1007300002B0704782B00190ADF802108DF8012030
:100740009DF8010038B1FFE7BDF8022001998889C2
:100750001043888106E0BDF8022001998889904302
:100760008881FFE702B0704783B0029001910020BA
:10077000ADF8020002980088ADF80200029842F637
:100780000041C4F20101884225D0FFE7029843F2FC
:100790000041C4F2010188421DD0FFE70298B0F188
:1007A000804F18D0FFE7029840F20041C4F20001E8
:1007B000884210D0FFE7029840F60001C4F2000121
:1007C000884208D0FFE7029840F60041C4F20001D9
:1007D00088420ED1FFE7BDF8020020F07000ADF8AE
:1007E000020001984188BDF802000843ADF80200FC
:1007F000FFE7029841F20001C4F20001884216D0DE
:10080000FFE7029841F20041C4F2000188420ED095
:10081000FFE7BDF8020020F44070ADF80200019837
:10082000C188BDF802000843ADF80200FFE7BDF83B
:1008300002000299088001988088029988850198B1
:10084000008802990885029842F60041C4F201012D
:10085000884220D0FFE7029843F20041C4F2010130
:10086000884218D0FFE7029844F20001C4F2010167
:10087000884210D0FFE7029844F20041C4F201011F
:10088000884208D0FFE7029844F60001C4F2010153
:10089000884205D1FFE70198007A02990886FFE7B0
:1008A00002990120888203B07047000080B582B0B1
:1008B00008200121FFF736FE10208DF807000720E1
:1008C000ADF8040003208DF8060040F60040C4F2A5
:1008D000010001A9FFF7C2FC02B080BD80B582B063
:1008E00000200190FFF7E2FF00F002F8FFE7FEE7CB
:1008F00080B588B0022001210391FFF7F7FD0020A9
:100900000190ADF81A00ADF8160042F6DF61ADF8BF
:10091000181040F69F71ADF814108DF81C0040F2CD
:100920000040C4F20000029005A9FFF71DFF0298E5
:100930000399FFF7E9FE01990298039A1D238DF8A8
:1009400010308DF813208DF811108DF8121011460B
:10095000FFF7F0FE04A8FFF773FD08B080BD0000AC
:1009600080B582B040F60040C4F201000721FFF7D5
:1009700039FDADF80600BDF80600012808D1FFE7F3
:1009800040F60040C4F201000721FFF745FD07E0F3
:1009900040F60040C4F201000721FFF747FDFFE7E2
:1009A00002B080BDB409000800000020600600000D
:0409B0005C010008DE
:04000005080001A14D
:00000001FF
