:020000040800F2
:1000000088060020BD010008C5010008C7010008DE
:10001000C9010008CB010008CD0100080000000064
:10002000000000000000000000000000CF010008F8
:10003000D101000800000000D3010008D50100082C
:10004000D7010008D7010008D7010008D701000830
:10005000D7010008D7010008D7010008D701000820
:10006000D7010008D7010008D7010008D701000810
:10007000D7010008D7010008D7010008D701000800
:10008000D7010008D7010008D701000800000000D0
:10009000000000000000000000000000D701000880
:1000A000D7010008D7010008D7010008D7010008D0
:1000B000D7010008D7010008D7010008D7010008C0
:1000C000D7010008D7010008D7010008D7010008B0
:1000D000D7010008D7010008D7010008D7010008A0
:1000E000D7010008D7010008D70100080000000070
:1000F0000000000000000000000000000000000000
:1001000000000000000000000000000000000000EF
:100110000000000000000000D7010008D70100081F
:1001200000F002F800F03AF80AA090E8000C8244CF
:100130008344AAF10107DA4501D100F02FF8AFF2AC
:10014000090EBAE80F0013F0010F18BFFB1A43F0B5
:1001500001031847F4090000140A0000103A24BFF4
:1001600078C878C1FAD8520724BF30C830C144BF1C
:1001700004680C607047000000230024002500265E
:10018000103A28BF78C1FBD8520728BF30C148BFFA
:100190000B6070471FB51FBD10B510BD00F031F8E2
:1001A0001146FFF7F7FF00F011FA00F04FF803B423
:1001B000FFF7F2FF03BC00F057F800000948804742
:1001C00009480047FEE7FEE7FEE7FEE7FEE7FEE739
:1001D000FEE7FEE7FEE7FEE704480549054A064B51
:1001E0007047000041050008210100088800002038
:1001F000880600208802002088020020704770478F
:100200007047754600F02CF8AE4605006946534627
:1002100020F00700854618B020B5FFF7DDFFBDE8E8
:1002200020404FF000064FF000074FF000084FF05D
:10023000000BAC46ACE8C009ACE8C009ACE8C009AA
:10024000ACE8C00921F007018D46704710B504469F
:10025000AFF300802046BDE81040FFF7A8BF0000C4
:10026000004870472800002001491820ABBEFEE777
:10027000260002007047000088B007900691002019
:100280000590049003900290019000900698C07829
:1002900000F00F0005900698C078C006002806D52B
:1002A000FFE706988178059808430590FFE70698D0
:1002B000007800284BD0FFE70798006801900020E5
:1002C0000390FFE7039807283DD8FFE70399012033
:1002D000884002900698008802990840049004988B
:1002E000029988422AD1FFE7039880000290029980
:1002F0000F2088400090009901988843019005984C
:10030000029900FA01F10198084301900698C0781B
:10031000282806D1FFE70399012088400799486102
:100320000BE00698C078482806D1FFE70399012022
:10033000884007990861FFE7FFE7FFE7FFE70398B9
:1003400001300390BEE7019807990860FFE706981F
:100350000088B0F5807F50DBFFE707984068019088
:1003600000200390FFE70398072842D8FFE703988F
:1003700000F1080101208840029006980088029947
:10038000084004900498029988422DD1FFE7039811
:100390008000029002990F208840009000990198F7
:1003A000884301900598029900FA01F101980843E9
:1003B00001900698C078282808D1FFE7039800F13B
:1003C00008010120884007994861FFE70698C07836
:1003D000482808D1FFE7039800F108010120884070
:1003E00007990861FFE7FFE7FFE7039801300390F3
:1003F000B9E7019807994860FFE708B07047000027
:1004000082B001908DF803109DF8030048B1FFE71A
:10041000019A41F21801C4F2020108681043086011
:1004200008E0019A41F21801C4F202010868904301
:100430000860FFE702B0704780B500F001F880BDAA
:1004400084B000200390029041F20001C4F2020146
:10045000086840F480300860FFE741F20000C4F211
:100460000200006800F4003002900398013003900D
:10047000FFE702990020019039B9FFE70398B0F532
:10048000A06018BF01200190FFE70198C007002875
:10049000E3D1FFE741F20000C4F2020000688003EC
:1004A000002803D5FFE70120029002E0002002901F
:1004B000FFE7029801283FD1FFE741F20401C4F2AF
:1004C0000201009108680860086808600868086010
:1004D000086820F47C100860086840F498100860F0
:1004E00041F20001C4F20201086840F08070086027
:1004F000FFE741F20000C4F202000068800100281A
:1005000001D4FFE7F5E741F20401C4F202010868F3
:1005100020F003000860086840F002000860FFE770
:1005200041F20400C4F20200006800F00C00082848
:1005300001D0FFE7F4E700E0FFE704B070470000F8
:1005400080B541F20002C4F20202106840F00100DE
:10055000106041F20401C4F2020108680023CFF6E2
:10056000FF031840086010684FF6FF73CFF6F6637C
:1005700018401060106820F480201060086820F493
:10058000FE00086041F20801C4F202014FF41F00AE
:10059000086041F22C01C4F2020100200860FFF75C
:1005A0004BFF4EF60851CEF200014FF0006008609C
:1005B00080BD000081B00090FFE70098411E0091CF
:1005C00008B1FFE7F9E701B07047000080B58AB0D5
:1005D000002009906946802008614020C8602020E2
:1005E0008860102048600820086040F60000C4F2CF
:1005F000010001210222042300F02CFAFFE7002071
:100600008DF8200047F26C31C6F66961079146F219
:100610006E11C6F6731106910590FFE7059906A8BD
:10062000405C98B1FFE7059906A8415C40F60000E0
:10063000C4F2010000F038F80598013005904CF242
:10064000C060C0F22D00FFF7B5FFE7E740F60000FD
:10065000C4F2010000F008F84EF68060C0F23600E7
:10066000FFF7A8FFCBE7000080B582B00190002023
:100670000090FFE70098032813DCFFE7009940F2A1
:100680000000C2F20000405C0199C8604AF22010EC
:10069000C0F20700FFF78EFFFFE7009801300090DF
:1006A000E8E702B080BD000080B584B003908DF80B
:1006B0000B109DF80B00412805D0FFE79DF80B00BB
:1006C000612808D1FFE740F20A00C2F2000000787A
:1006D0000399C860BCE19DF80B00422805D0FFE7F4
:1006E0009DF80B00622808D1FFE740F20A00C2F231
:1006F000000040780399C860A9E19DF80B004328E9
:1007000005D0FFE79DF80B00632808D1FFE740F212
:100710000A00C2F2000080780399C86096E19DF853
:100720000B00442805D0FFE79DF80B00642808D192
:10073000FFE740F20A00C2F20000C0780399C860E7
:1007400083E19DF80B00452805D0FFE79DF80B00DD
:10075000652808D1FFE740F20A00C2F200000079E4
:100760000399C86070E19DF80B00462805D0FFE7AB
:100770009DF80B00662808D1FFE740F20A00C2F29C
:10078000000040790399C8605DE19DF80B0047289F
:1007900005D0FFE79DF80B00672808D1FFE740F27E
:1007A0000A00C2F2000080790399C8604AE19DF80E
:1007B0000B00482805D0FFE79DF80B00682808D1FA
:1007C000FFE740F20A00C2F20000C0790399C86056
:1007D00037E19DF80B00492805D0FFE79DF80B0095
:1007E000692808D1FFE740F20A00C2F20000007A4F
:1007F0000399C86024E19DF80B004A2805D0FFE763
:100800009DF80B006A2808D1FFE740F20A00C2F207
:100810000000407A0399C86011E19DF80B004B2855
:1008200005D0FFE79DF80B006B2808D1FFE740F2E9
:100830000A00C2F20000807A0399C860FEE09DF8C9
:100840000B004C2805D0FFE79DF80B006C2808D161
:10085000FFE740F20A00C2F20000C07A0399C860C4
:10086000EBE09DF80B004D2805D0FFE79DF80B004D
:100870006D2808D1FFE740F20A00C2F20000007BB9
:100880000399C860D8E09DF80B004E2805D0FFE71B
:100890009DF80B006E2808D1FFE740F20A00C2F273
:1008A0000000407B0399C860C5E09DF80B004F280D
:1008B00005D0FFE79DF80B006F2808D1FFE740F255
:1008C0000A00C2F20000807B0399C860B2E09DF884
:1008D0000B00502805D0FFE79DF80B00702808D1C9
:1008E000FFE740F20A00C2F20000C07B0399C86033
:1008F0009FE09DF80B00522805D0FFE79DF80B0004
:10090000722808D1FFE740F20A00C2F20000007C22
:100910000399C8608CE09DF80B00532805D0FFE7D1
:100920009DF80B00732808D1FFE740F20A00C2F2DD
:100930000000407C0399C86079E09DF80B005428C2
:1009400005D0FFE79DF80B00742808D1FFE740F2BF
:100950000A00C2F20000807C0399C86066E09DF83E
:100960000B00552805D0FFE79DF80B00752808D12E
:10097000FFE740F20A00C2F20000C07C0399C860A1
:1009800053E09DF80B00562805D0FFE79DF80B00BB
:10099000762808D1FFE740F20A00C2F20000007D8D
:1009A0000399C86040E09DF80B00592805D0FFE787
:1009B0009DF80B00792808D1FFE740F20A00C2F247
:1009C0000000407D0399C8602DE09DF80B005A2877
:1009D00005D0FFE79DF80B007A2808D1FFE740F229
:1009E0000A00C2F20000807D0399C8601AE000206E
:1009F0000190FFE70198052813DCFFE7019940F219
:100A00000400C2F20000405C0399C86040F6405008
:100A1000C0F20300FFF7CEFDFFE70198013001901F
:100A2000E8E7FFE7FFE7FFE7FFE7FFE7FFE7FFE7AD
:100A3000FFE7FFE7FFE7FFE7FFE7FFE7FFE7FFE786
:100A4000FFE7FFE7FFE7FFE7FFE7FFE7FFE7FFE776
:100A500004B080BDF0B585B09E4614460D460646EE
:100A60000E980D990C9A0B9BDDF828C004968DF812
:100A70000F508DF80E408DF80DE08DF80CC08DF8FC
:100A80000B308DF80A208DF809108DF808000498B5
:100A900040F60001C4F20101884205D1FFE70420BD
:100AA0000121FFF7ADFC29E0049840F60041C4F2B3
:100AB0000101884205D1FFE708200121FFF7A0FCD2
:100AC0001BE0049841F20001C4F20101884205D103
:100AD000FFE710200121FFF793FC0DE0049841F29D
:100AE0000041C4F20101884205D1FFE72020012125
:100AF000FFF786FCFFE7FFE7FFE7FFE710208DF831
:100B0000070003208DF806009DF80F009DF80E10D9
:100B100008439DF80D1008439DF80C1008439DF8FC
:100B20000B1008439DF80A1008439DF8091008436C
:100B30009DF808100843ADF80400049801A9FFF7D8
:100B40009BFB05B0F0BD0000680B00080000002012
:100B5000240000005C0100088C0B00082800002025
:100B6000600600007801000840495C520102040858
:100B70001020777C395E79716F74100E783840548C
:0C0B80005C73506D781C4066490000005A
:04000005080001BD31
:00000001FF
