:020000040800F2
:1000000060060020A1010008A9010008AB0100085A
:10001000AD010008AF010008B101000800000000B8
:10002000000000000000000000000000B301000814
:10003000B501000800000000B7010008B901000880
:10004000BB010008BB010008BB010008BB010008A0
:10005000BB010008BB010008BB010008BB01000890
:10006000BB010008BB010008BB010008BB01000880
:10007000BB010008BB010008BB010008BB01000870
:10008000BB010008BB010008BB0100080000000024
:10009000000000000000000000000000BB0100089C
:1000A000BB010008BB010008BB010008BB01000840
:1000B000BB010008BB010008BB010008BB01000830
:1000C000BB010008BB010008BB010008BB01000820
:1000D000BB010008BB010008BB010008BB01000810
:1000E000BB010008BB010008BB01000800000000C4
:1000F0000000000000000000000000000000000000
:1001000000000000000000000000000000000000EF
:100110000000000000000000BB010008BB01000857
:1001200000F002F800F02CF80AA090E8000C8244DD
:100130008344AAF10107DA4501D100F021F8AFF2BA
:10014000090EBAE80F0013F0010F18BFFB1A43F0B5
:1001500001031847800800009008000000230024D5
:1001600000250026103A28BF78C1FBD8520728BFC7
:1001700030C148BF0B6070471FB51FBD10B510BD23
:1001800000F031F81146FFF7F7FF00F0D5FB00F063
:100190004FF803B4FFF7F2FF03BC00F057F800007C
:1001A0000948804709480047FEE7FEE7FEE7FEE70B
:1001B000FEE7FEE7FEE7FEE7FEE7FEE70448054947
:1001C000054A064B704700000D0700082101000892
:1001D0006000002060060020600200206002002015
:1001E000704770477047754600F02CF8AE46050022
:1001F0006946534620F00700854618B020B5FFF742
:10020000DDFFBDE820404FF000064FF000074FF043
:1002100000084FF0000BAC46ACE8C009ACE8C009E0
:10022000ACE8C009ACE8C00921F007018D46704771
:1002300010B50446AFF300802046BDE81040FFF73C
:10024000A8BF0000004870470000002001491820A6
:10025000ABBEFEE7260002007047000088B00790A2
:100260000691002005900490039002900190009068
:100270000698C07800F00F0005900698C078C00678
:10028000002806D5FFE70698817805980843059071
:10029000FFE70698007800284BD0FFE70798006832
:1002A000019000200390FFE7039807283DD8FFE75F
:1002B000039901208840029006980088029908401E
:1002C00004900498029988422AD1FFE7039880009D
:1002D000029002990F20884000900099019888436D
:1002E00001900598029900FA01F1019808430190E4
:1002F0000698C078282806D1FFE703990120884096
:10030000079948610BE00698C078482806D1FFE7B6
:1003100003990120884007990861FFE7FFE7FFE79D
:10032000FFE7039801300390BEE701980799086042
:10033000FFE706980088B0F5807F50DBFFE707985D
:100340004068019000200390FFE70398072842D8F7
:10035000FFE7039800F10801012088400290069809
:1003600000880299084004900498029988422DD18F
:10037000FFE703988000029002990F2088400090C8
:1003800000990198884301900598029900FA01F1BB
:100390000198084301900698C078282808D1FFE703
:1003A000039800F108010120884007994861FFE7A0
:1003B0000698C078482808D1FFE7039800F10801A3
:1003C0000120884007990861FFE7FFE7FFE70398EE
:1003D00001300390B9E7019807994860FFE708B03A
:1003E0007047000080B582B00420012100F03AF887
:1003F00018208DF807004FF40070ADF804000320BA
:100400008DF8060040F60000C4F2010001A9FFF7D4
:1004100025FF02B080BD000080B586B04FF480405B
:100420000121019100F01EF84FF4165002900020B7
:10043000ADF814000821ADF81210ADF81000ADF8B9
:100440000E00ADF80C0043F60000C4F2010000906D
:1004500002A900F0ABF90098019900F091F906B0FB
:1004600080BD000082B001908DF803109DF803005C
:1004700048B1FFE7019A41F21801C4F2020108688D
:100480001043086008E0019A41F21801C4F2020129
:10049000086890430860FFE702B0704787B0069095
:1004A00000200590049003900290019041F2040016
:1004B000C4F20200006800F00C000590059800905E
:1004C00040B1FFE7009804280BD0FFE70098082808
:1004D0000ED040E0069941F20020C0F27A00086098
:1004E00040E0069941F20020C0F27A00086039E04D
:1004F00041F20400C4F20200016801F47011049199
:10050000006800F4803003900499022000EB9140D1
:100510000490039848B9FFE7049840F60011C0F230
:100520003D0148430699086014E041F22C00C4F2F2
:100530000200006800F00F0001300190019941F2C3
:100540000020C0F27A00B0FBF1F00499484306990C
:100550000860FFE706E0069941F20020C0F27A0049
:100560000860FFE741F20400C4F20200016801F0F4
:10057000F0010591059909090591059A40F6B21116
:10058000C0F600018A5C0292069B1A68DDF808C07A
:1005900022FA0CF25A60026802F4E0620592059AAF
:1005A000120A0592059A8A5C0292069B5A68DDF847
:1005B00008C022FA0CF29A60026802F460520592B6
:1005C000059AD20A0592059A895C0291069A5168A9
:1005D000029BD940D160006800F440400590059826
:1005E000800B0590059940F6AE10C0F60000405C07
:1005F00002900699C868029AB0FBF2F0086107B051
:100600007047000080B500F001F880BD84B0002084
:100610000390029041F20001C4F20201086840F424
:1006200080300860FFE741F20000C4F20200006879
:1006300000F400300290039801300390FFE7029924
:100640000020019039B9FFE70398B0F5A06018BF0A
:1006500001200190FFE70198C0070028E3D1FFE7E0
:1006600041F20000C4F2020000688003002803D5B4
:10067000FFE70120029002E000200290FFE70298CD
:1006800001283FD1FFE741F20401C4F202010091C9
:10069000086808600868086008680860086820F44E
:1006A0007C100860086840F49810086041F200016E
:1006B000C4F20201086840F080700860FFE741F270
:1006C0000000C4F2020000688001002801D4FFE7A6
:1006D000F5E741F20401C4F20201086820F00300CA
:1006E0000860086840F002000860FFE741F204007B
:1006F000C4F20200006800F00C00082801D0FFE7F7
:10070000F4E700E0FFE704B07047000080B541F275
:100710000002C4F20202106840F00100106041F2D1
:100720000401C4F2020108680023CFF6FF03184059
:10073000086010684FF6FF73CFF6F663184010603C
:10074000106820F480201060086820F4FE00086023
:1007500041F20801C4F202014FF41F00086041F2A7
:100760002C01C4F2020100200860FFF74BFF4EF697
:100770000851CEF200014FF00060086080BD00001B
:1007800082B001908DF803109DF8030030B1FFE7AF
:100790000199888940F40050888105E00199888991
:1007A00020F400508881FFE702B0704780B58CB01C
:1007B0000B900A91002009900890079006900590F0
:1007C0000A98808908B1FFE7FFE70B9805900B981E
:1007D000008A099009984CF6FF71084009900A9820
:1007E000C18809980843099009980B9908820B98C9
:1007F0008089099009984EF6F311084009900A99EA
:1008000088880A8910434989014309980843099057
:1008100009980B9988810B98808A099009984FF65E
:10082000FF41084009900A98818909980843099076
:1008300009980B9988826846FFF730FE059843F6C1
:100840000001C4F20101884203D1FFE70398089038
:1008500002E002980890FFE70B98808900040028C6
:100860000AD5FFE70898192148430A990968490001
:10087000B0FBF1F0079009E00898192148430A9964
:1008800009688900B0FBF1F00790FFE7079848F28C
:100890001F51C5F2EB11A0FB01016FF00F0000EA40
:1008A00051000990079A09980009642100FB112062
:1008B00006900B9880890004002810D5FFE7069960
:1008C000322000EBC10048F21F51C5F2EB11A0FB32
:1008D0000110C0F342110998084309900FE00699EE
:1008E000322000EB011048F21F51C5F2EB11A0FBC2
:1008F0000110C0F34311099808430990FFE70998D4
:100900000B9908810CB080BD82B00190ADF8021047
:10091000BDF802006FF35F200199888002B0704734
:1009200081B00090FFE70098411E009108B1FFE7F9
:10093000F9E701B07047000080B582B00020019057
:10094000FFF750FDFFF768FDFFE740F6C210C0F665
:10095000000000F007F84AF64040C0F22700FFF719
:10096000DFFFF2E780B582B0019000200090FFE742
:1009700001980099405CC0B1FFE7FFE743F6000033
:10098000C4F2010000884006002801D4FFE7F5E723
:1009900001980099415C43F60000C4F20100FFF7A2
:1009A000B3FF009801300090E2E702B080BD02047E
:1009B0000608000000000102030401020304060708
:1009C00008094962726168696D20536F6D756E63C5
:1009D000750A0000E409000800000020600600001D
:0409E0005C010008AE
:04000005080001A14D
:00000001FF
