:020000040800F2
:1000000060060020A1010008A9010008AB0100085A
:10001000AD010008AF010008B101000800000000B8
:10002000000000000000000000000000B301000814
:10003000B501000800000000B7010008B901000880
:10004000BB010008BB010008BB010008BB010008A0
:10005000BB010008BB010008BB010008BB01000890
:10006000BB0100085D020008BB010008BB010008DD
:10007000BB010008BB010008BB010008BB01000870
:10008000BB010008BB010008BB0100080000000024
:10009000000000000000000000000000BB0100089C
:1000A000BB010008BB010008BB010008BB01000840
:1000B000BB010008BB010008BB010008BB01000830
:1000C000BB010008BB010008BB010008BB01000820
:1000D000BB010008BB010008BB010008BB01000810
:1000E000BB010008BB010008BB01000800000000C4
:1000F0000000000000000000000000000000000000
:1001000000000000000000000000000000000000EF
:100110000000000000000000BB010008BB01000857
:1001200000F002F800F02CF80AA090E8000C8244DD
:100130008344AAF10107DA4501D100F021F8AFF2BA
:10014000090EBAE80F0013F0010F18BFFB1A43F0B5
:1001500001031847800800009008000000230024D5
:1001600000250026103A28BF78C1FBD8520728BFC7
:1001700030C148BF0B6070471FB51FBD10B510BD23
:1001800000F031F81146FFF7F7FF00F0D3FB00F065
:100190004FF803B4FFF7F2FF03BC00F057F800007C
:1001A0000948804709480047FEE7FEE7FEE7FEE70B
:1001B000FEE7FEE7FEE7FEE7FEE7FEE70448054947
:1001C000054A064B70470000FD07000821010008A2
:1001D0006000002060060020600200206002002015
:1001E000704770477047754600F02CF8AE46050022
:1001F0006946534620F00700854618B020B5FFF742
:10020000DDFFBDE820404FF000064FF000074FF043
:1002100000084FF0000BAC46ACE8C009ACE8C009E0
:10022000ACE8C009ACE8C00921F007018D46704771
:1002300010B50446AFF300802046BDE81040FFF73C
:10024000A8BF0000004870470000002001491820A6
:10025000ABBEFEE7260002007047000080B584B008
:10026000082000F037F848B3FFE700200390FFE7CD
:10027000039802281EDCFFE740F60040C4F20100AC
:1002800001900721029100F0B9F94BF6A030C0F2BD
:100290000D0000F0EDFA0198029900F0A5F949F27D
:1002A000E030C0F2040000F0E3FAFFE70398013009
:1002B0000390DDE7082000F003F8FFE704B080BDFD
:1002C00081B00090009840F21441C4F2010108602E
:1002D00001B0704783B0029000208DF807000090B5
:1002E00040F20040C4F2010000680299084000900A
:1002F00040F21440C4F2010000680299084207D09D
:10030000FFE7009820B1FFE701208DF8070003E028
:1003100000208DF80700FFE79DF8070003B0704745
:1003200082B001900020009040F20040C4F2010031
:10033000009001988079002859D0FFE70198026861
:1003400040F20041C4F2010108689043086001983E
:10035000026840F20441C4F2010108689043086059
:10036000019801790098084400900198026800996A
:100370000868104308600198026840F20841C4F21E
:1003800001010868904308600198026840F20C413E
:10039000C4F2010108689043086001984079102870
:1003A00013D1FFE70198026840F20841C4F201014D
:1003B0000868104308600198026840F20C41C4F2DA
:1003C000010108681043086010E040F20040C4F2E8
:1003D000010000900198417900980844009001982C
:1003E00002680099086810430860FFE70BE0019875
:1003F0000179009808440090019802680099086803
:1004000090430860FFE702B07047000082B08DF8AB
:1004100007008DF80610002000909DF8060000F0FF
:10042000030081000F2088400090009B9DF806008B
:1004300000F0FC010822C4F2010288589843885059
:100440009DF807109DF8060000F003039B0001FAD9
:1004500003F300F0FC0188581843885002B070473D
:1004600088B00790069100200590049003900290B8
:10047000019000900698C07800F00F000590069853
:10048000C078C006002806D5FFE706988178059851
:1004900008430590FFE70698007800284BD0FFE757
:1004A00007980068019000200390FFE70398072851
:1004B0003DD8FFE703990120884002900698008804
:1004C0000299084004900498029988422AD1FFE7D3
:1004D00003988000029002990F20884000900099B4
:1004E0000198884301900598029900FA01F101985A
:1004F000084301900698C078282806D1FFE70399A1
:1005000001208840079948610BE00698C078482888
:1005100006D1FFE703990120884007990861FFE7AA
:10052000FFE7FFE7FFE7039801300390BEE701987C
:1005300007990860FFE706980088B0F5807F50DBD8
:10054000FFE707984068019000200390FFE70398B9
:10055000072842D8FFE7039800F1080101208840EE
:100560000290069800880299084004900498029925
:1005700088422DD1FFE703988000029002990F2056
:10058000884000900099019888430190059802994D
:1005900000FA01F10198084301900698C0782828D4
:1005A00008D1FFE7039800F108010120884007996E
:1005B0004861FFE70698C078482808D1FFE703980C
:1005C00000F108010120884007990861FFE7FFE773
:1005D000FFE7039801300390B9E701980799486055
:1005E000FFE708B07047000082B00190ADF802103C
:1005F000BDF802000199486102B0704782B00190D5
:10060000ADF80210BDF802000199086102B0704710
:1006100084B003900020029001900F200090039876
:10062000C078C0B3FFE74EF60C50CEF20000006871
:10063000C043C0F3022002900298C0F10400019070
:1006400000980299C840009003984078019988402A
:100650000290039880780099014002980843029024
:100660000298000102900298039909784EF2004224
:10067000CEF2000288540398027802F01F01012094
:1006800088404EF20011CEF2000141EAD20121F081
:10069000030108600FE00398027802F01F010120B7
:1006A00088404EF28011CEF2000141EAD20121F0E1
:1006B00003010860FFE704B07047000082B00190BA
:1006C0008DF803109DF8030048B1FFE7019A41F24D
:1006D0001801C4F2020108681043086008E0019A9A
:1006E00041F21801C4F20201086890430860FFE774
:1006F00002B0704780B500F001F880BD84B00020E2
:100700000390029041F20001C4F20201086840F433
:1007100080300860FFE741F20000C4F20200006888
:1007200000F400300290039801300390FFE7029933
:100730000020019039B9FFE70398B0F5A06018BF19
:1007400001200190FFE70198C0070028E3D1FFE7EF
:1007500041F20000C4F2020000688003002803D5C3
:10076000FFE70120029002E000200290FFE70298DC
:1007700001283FD1FFE741F20401C4F202010091D8
:10078000086808600868086008680860086820F45D
:100790007C100860086840F49810086041F200017D
:1007A000C4F20201086840F080700860FFE741F27F
:1007B0000000C4F2020000688001002801D4FFE7B5
:1007C000F5E741F20401C4F20201086820F00300D9
:1007D0000860086840F002000860FFE741F204008A
:1007E000C4F20200006800F00C00082801D0FFE706
:1007F000F4E700E0FFE704B07047000080B541F285
:100800000002C4F20202106840F00100106041F2E0
:100810000401C4F2020108680023CFF6FF03184068
:10082000086010684FF6FF73CFF6F663184010604B
:10083000106820F480201060086820F4FE00086032
:1008400041F20801C4F202014FF41F00086041F2B6
:100850002C01C4F2020100200860FFF74BFF4EF6A6
:100860000851CEF200014FF00060086080BD00002A
:1008700081B00090FFE70098411E009108B1FFE7AA
:10088000F9E701B07047000080B584B00121009104
:100890000846FFF713FF02200321FFF7B7FD009979
:1008A000082002908DF80E1000218DF80C108DF8A4
:1008B0000D0002A8FFF734FD009809218DF80410FF
:1008C0008DF807008DF805008DF8060001A8FFF7E8
:1008D0009FFE04B080BD000080B586B00820039064
:1008E00001210191FFF7EAFE019910200290FFF724
:1008F000E5FE02988DF817000720ADF814000320DC
:100900008DF8160040F60040C4F2010005A90491DC
:10091000FFF7A6FD0398049928228DF81720ADF85B
:10092000140041F20000C4F20100FFF799FD06B087
:1009300080BD000080B588B000200790FFF7CCFF95
:10094000FFF7A2FF40F6CC10C0F600008188ADF89A
:10095000181000680590FFE700200490FFE7049856
:1009600002281EDCFFE7049905A8029030F8111058
:1009700040F60040C4F201000390FFF73FFE42F250
:10098000C070C0F20900FFF773FF02990398049A40
:1009900031F81210FFF728FEFFE7049801300490A9
:1009A000DDE7BDF8161040F60040C4F201000190EA
:1009B000FFF724FE42F2C070C0F20900FFF758FFB3
:1009C0000198BDF81610FFF70FFEC5E70100020001
:1009D00004000000E4090008000000206006000098
:0409E0005C010008AE
:04000005080001A14D
:00000001FF
