:020000040800F2
:1000000060060020A1010008A9010008AB0100085A
:10001000AD010008AF010008B101000800000000B8
:10002000000000000000000000000000B301000814
:10003000B501000800000000B7010008B901000880
:10004000BB010008BB010008BB010008BB010008A0
:10005000BB010008BB010008BB010008BB01000890
:10006000BB010008BB010008BB010008BB01000880
:10007000BB010008BB010008BB010008BB01000870
:10008000BB010008BB010008BB0100080000000024
:10009000000000000000000000000000BB0100089C
:1000A000BB010008BB010008BB010008BB01000840
:1000B000BB010008BB010008BB010008BB01000830
:1000C000BB010008BB010008BB010008BB01000820
:1000D000BB010008BB010008BB010008BB01000810
:1000E000BB010008BB010008BB01000800000000C4
:1000F0000000000000000000000000000000000000
:1001000000000000000000000000000000000000EF
:100110000000000000000000BB010008BB01000857
:1001200000F002F800F02CF80AA090E8000C8244DD
:100130008344AAF10107DA4501D100F021F8AFF2BA
:10014000090EBAE80F0013F0010F18BFFB1A43F0B5
:1001500001031847BC050000CC0500000023002463
:1001600000250026103A28BF78C1FBD8520728BFC7
:1001700030C148BF0B6070471FB51FBD10B510BD23
:1001800000F031F81146FFF7F7FF00F0B9FA00F080
:100190004FF803B4FFF7F2FF03BC00F057F800007C
:1001A0000948804709480047FEE7FEE7FEE7FEE70B
:1001B000FEE7FEE7FEE7FEE7FEE7FEE70448054947
:1001C000054A064B70470000ED05000821010008B4
:1001D0006000002060060020600200206002002015
:1001E000704770477047754600F02CF8AE46050022
:1001F0006946534620F00700854618B020B5FFF742
:10020000DDFFBDE820404FF000064FF000074FF043
:1002100000084FF0000BAC46ACE8C009ACE8C009E0
:10022000ACE8C009ACE8C00921F007018D46704771
:1002300010B50446AFF300802046BDE81040FFF73C
:10024000A8BF0000004870470000002001491820A6
:10025000ABBEFEE7260002007047000082B00190AE
:100260008DF803109DF8030030B1FFE7019988680D
:1002700040F00100886005E00199886820F00100E5
:100280008860FFE702B0704784B0039002910020BD
:1002900001908DF8030003984068019001984FF693
:1002A000FF61CFF6F0710840019002990868097962
:1002B00040EA0121019808430190019803994860A0
:1002C00003988068019001984FF2FD71CFF6F171AB
:1002D000084001900299C8688A681043497940EA49
:1002E000410101980843019001980399886003989F
:1002F000C06A0190019820F4700001900298007C7F
:10030000411E9DF8030008438DF803009DF803107B
:10031000019840EA0150019001980399C86204B025
:100320007047000088B00790069100200590049067
:1003300003900290019000900698C07800F00F00A2
:1003400005900698C078C006002806D5FFE70698F5
:100350008178059808430590FFE706980078002803
:100360004BD0FFE707980068019000200390FFE75B
:10037000039807283DD8FFE70399012088400290A1
:1003800006980088029908400490049802998842CF
:100390002AD1FFE703988000029002990F2088403D
:1003A000009000990198884301900598029900FAFD
:1003B00001F10198084301900698C078282806D1D9
:1003C000FFE7039901208840079948610BE00698F0
:1003D000C078482806D1FFE7039901208840079993
:1003E0000861FFE7FFE7FFE7FFE7039801300390AD
:1003F000BEE7019807990860FFE706980088B0F506
:10040000807F50DBFFE70798406801900020039051
:10041000FFE70398072842D8FFE7039800F1080197
:1004200001208840029006980088029908400490B4
:100430000498029988422DD1FFE70398800002902A
:1004400002990F20884000900099019888430190FC
:100450000598029900FA01F1019808430190069865
:10046000C078282808D1FFE7039800F1080101208F
:10047000884007994861FFE70698C078482808D166
:10048000FFE7039800F108010120884007990861FF
:10049000FFE7FFE7FFE7039801300390B9E7019812
:1004A00007994860FFE708B07047000082B00190EC
:1004B0008DF803109DF8030048B1FFE7019A41F25F
:1004C0001801C4F2020108681043086008E0019AAC
:1004D00041F21801C4F20201086890430860FFE786
:1004E00002B0704780B500F001F880BD84B00020F4
:1004F0000390029041F20001C4F20201086840F446
:1005000080300860FFE741F20000C4F2020000689A
:1005100000F400300290039801300390FFE7029945
:100520000020019039B9FFE70398B0F5A06018BF2B
:1005300001200190FFE70198C0070028E3D1FFE701
:1005400041F20000C4F2020000688003002803D5D5
:10055000FFE70120029002E000200290FFE70298EE
:1005600001283FD1FFE741F20401C4F202010091EA
:10057000086808600868086008680860086820F46F
:100580007C100860086840F49810086041F200018F
:10059000C4F20201086840F080700860FFE741F291
:1005A0000000C4F2020000688001002801D4FFE7C7
:1005B000F5E741F20401C4F20201086820F00300EB
:1005C0000860086840F002000860FFE741F204009C
:1005D000C4F20200006800F00C00082801D0FFE718
:1005E000F4E700E0FFE704B07047000080B541F297
:1005F0000002C4F20202106840F00100106041F2F3
:100600000401C4F2020108680023CFF6FF0318407A
:10061000086010684FF6FF73CFF6F663184010605D
:10062000106820F480201060086820F4FE00086044
:1006300041F20801C4F202014FF41F00086041F2C8
:100640002C01C4F2020100200860FFF74BFF4EF6B8
:100650000851CEF200014FF00060086080BD00003C
:1006600080B588B04FF4007001210291FFF71EFFA2
:1006700002998DF81110002006904FF46022059227
:1006800003908DF81C108DF8100042F20040C4F267
:100690000100019003A9FFF7F7FD01980299FFF708
:1006A000DDFD08B080BD000080B584B004200121CC
:1006B0000191FFF7FBFE01990820FFF7F7FE1020DC
:1006C0008DF80F000720ADF80C0003208DF80E0008
:1006D00040F60040C4F2010003A90291FFF722FE98
:1006E0000198029900228DF80F20ADF80C0040F619
:1006F0000000C4F20100FFF715FE04B080BD000049
:1007000080B5FFF7D1FFFFF7ABFF002080BD0000F1
:100710002007000800000020600600005C010008BF
:04000005080001A14D
:00000001FF
