:020000040800F2
:1000000068060020A1010008A9010008AB01000852
:10001000AD010008AF010008B101000800000000B8
:10002000000000000000000000000000B301000814
:10003000B501000800000000B7010008B901000880
:10004000BB010008BB010008BB010008BB010008A0
:10005000BB010008BB010008BB010008BB01000890
:10006000BB010008BB010008BB010008BB01000880
:10007000BB010008BB010008BB010008BB01000870
:10008000BB010008BB010008BB0100080000000024
:10009000000000000000000000000000BB0100089C
:1000A000BB010008BB010008BB010008BB01000840
:1000B000BB010008BB010008BB010008BB01000830
:1000C000BB010008BB010008BB010008BB01000820
:1000D000BB010008BB010008BB010008BB01000810
:1000E000BB010008BB010008BB01000800000000C4
:1000F0000000000000000000000000000000000000
:1001000000000000000000000000000000000000EF
:100110000000000000000000BB010008BB01000857
:1001200000F002F800F02CF80AA090E8000C8244DD
:100130008344AAF10107DA4501D100F021F8AFF2BA
:10014000090EBAE80F0013F0010F18BFFB1A43F0B5
:1001500001031847FC0A00000C0B000000230024D8
:1001600000250026103A28BF78C1FBD8520728BFC7
:1001700030C148BF0B6070471FB51FBD10B510BD23
:1001800000F031F81146FFF7F7FF00F031FC00F006
:100190004FF803B4FFF7F2FF03BC00F057F800007C
:1001A0000948804709480047FEE7FEE7FEE7FEE70B
:1001B000FEE7FEE7FEE7FEE7FEE7FEE70448054947
:1001C000054A064B70470000D508000821010008C9
:1001D00068000020680600206802002068020020F5
:1001E000704770477047754600F02CF8AE46050022
:1001F0006946534620F00700854618B020B5FFF742
:10020000DDFFBDE820404FF000064FF000074FF043
:1002100000084FF0000BAC46ACE8C009ACE8C009E0
:10022000ACE8C009ACE8C00921F007018D46704771
:1002300010B50446AFF300802046BDE81040FFF73C
:10024000A8BF0000004870470000002001491820A6
:10025000ABBEFEE7260002007047000082B00190AE
:100260008DF803109DF8030030B1FFE7019988680D
:1002700040F00100886005E00199886820F00100E5
:100280008860FFE702B0704781B000900098C06CB2
:1002900080B201B07047000082B001908DF8031069
:1002A00000208DF80200019800689DF803100842B4
:1002B00004D0FFE701208DF8020003E000208DF854
:1002C0000200FFE79DF8020002B0704784B003907F
:1002D0000291002001908DF803000398406801907E
:1002E00001984FF6FF61CFF6F07108400190029936
:1002F0000868097940EA01210198084301900198B2
:100300000399486003988068019001984FF2FD714D
:10031000CFF6F171084001900299C8688A681043CD
:10032000497940EA410101980843019001980399F5
:1003300088600398C06A0190019820F470000190D1
:100340000298007C411E9DF8030008438DF80300CD
:100350009DF80310019840EA01500190019803991B
:10036000C86204B07047000084B003908DF80B1091
:100370008DF80A208DF809300020019000909DF83A
:100380000B000A2821DBFFE70398C06801909DF865
:100390000B0000EB4000A0F11E01072088400090F8
:1003A00000990198884301909DF809009DF80B1071
:1003B00001EB41011E3988400090009901980843E3
:1003C000019001980399C8601DE0039800690190AD
:1003D0009DF80B0000EB4001072088400090009939
:1003E0000198884301909DF809009DF80B1001EBDE
:1003F00041018840009000990198084301900198BC
:1004000003990861FFE79DF80A00062820DCFFE752
:100410000398406B01909DF80A0000EB8000411F9B
:100420001F208840009000990198884301909DF812
:100430000B009DF80A1001EB8101053988400090FE
:10044000009901980843019001980399486347E097
:100450009DF80A000C2821DCFFE70398006B01904F
:100460009DF80A0000EB8000A0F123011F208840C6
:10047000009000990198884301909DF80B009DF829
:100480000A1001EB810123398840009000990198FE
:100490000843019001980399086320E00398C06A1B
:1004A00001909DF80A0000EB8000A0F141011F209F
:1004B0008840009000990198884301909DF80B00B6
:1004C0009DF80A1001EB81014139884000900099A4
:1004D00001980843019001980399C862FFE7FFE77C
:1004E00004B0704782B001908DF803109DF80300AE
:1004F00030B1FFE70199886840F4A000886005E00A
:100500000199886820F4A0008860FFE702B0704776
:1005100082B001908DF803109DF8030060B1FFE7F1
:100520000199012000FA01F247F20041C4F20001F2
:100530000868104308600BE00199012000FA01F2FD
:1005400047F20041C4F20001086890430860FFE7E9
:1005500002B0704784B00390029100200190009097
:1005600047F20041C4F2000108680190039A40F686
:10057000FE7000FA02F2019890430190029A10680E
:10058000D2F804C09368D26840EA0C0018431043C4
:1005900000900098039A00FA02F20198104301902B
:1005A0000198086004B0704783B00290ADF806105F
:1005B0000020009047F20040C4F200000090029832
:1005C0000099084408300090BDF8060000990860C2
:1005D00003B0704788B00790069100200590049002
:1005E00003900290019000900698C07800F00F00F0
:1005F00005900698C078C006002806D5FFE7069843
:100600008178059808430590FFE706980078002850
:100610004BD0FFE707980068019000200390FFE7A8
:10062000039807283DD8FFE70399012088400290EE
:10063000069800880299084004900498029988421C
:100640002AD1FFE703988000029002990F2088408A
:10065000009000990198884301900598029900FA4A
:1006600001F10198084301900698C078282806D126
:10067000FFE7039901208840079948610BE006983D
:10068000C078482806D1FFE70399012088400799E0
:100690000861FFE7FFE7FFE7FFE7039801300390FA
:1006A000BEE7019807990860FFE706980088B0F553
:1006B000807F50DBFFE7079840680190002003909F
:1006C000FFE70398072842D8FFE7039800F10801E5
:1006D0000120884002900698008802990840049002
:1006E0000498029988422DD1FFE703988000029078
:1006F00002990F208840009000990198884301904A
:100700000598029900FA01F10198084301900698B2
:10071000C078282808D1FFE7039800F108010120DC
:10072000884007994861FFE70698C078482808D1B3
:10073000FFE7039800F1080101208840079908614C
:10074000FFE7FFE7FFE7039801300390B9E701985F
:1007500007994860FFE708B07047000082B0019039
:100760008DF803109DF8030048B1FFE7019A41F2AC
:100770001C01C4F2020108681043086008E0019AF5
:1007800041F21C01C4F20201086890430860FFE7CF
:1007900002B0704782B001908DF803109DF80300FD
:1007A00048B1FFE7019A41F21801C4F2020108685A
:1007B0001043086008E0019A41F21801C4F20201F6
:1007C000086890430860FFE702B0704780B500F00A
:1007D00001F880BD84B000200390029041F2000136
:1007E000C4F20201086840F480300860FFE741F27B
:1007F0000000C4F20200006800F400300290039888
:1008000001300390FFE702990020019039B9FFE71A
:100810000398B0F5A06018BF01200190FFE7019890
:10082000C0070028E3D1FFE741F20000C4F2020054
:1008300000688003002803D5FFE70120029002E052
:1008400000200290FFE7029801283FD1FFE741F224
:100850000401C4F202010091086808600868086099
:1008600008680860086820F47C100860086840F494
:100870009810086041F20001C4F20201086840F0DB
:1008800080700860FFE741F20000C4F202000068D7
:100890008001002801D4FFE7F5E741F20401C4F22A
:1008A0000201086820F003000860086840F00200B8
:1008B0000860FFE741F20400C4F20200006800F0A3
:1008C0000C00082801D0FFE7F4E700E0FFE704B0E0
:1008D0007047000080B541F20002C4F202021068C5
:1008E00040F00100106041F20401C4F20201086806
:1008F0000023CFF6FF031840086010684FF6FF731F
:10090000CFF6F66318401060106820F48020106065
:10091000086820F4FE00086041F20801C4F20201F8
:100920004FF41F00086041F22C01C4F202010020C4
:100930000860FFF74BFF4EF60851CEF200014FF072
:100940000060086080BD000080B588B04FF4007082
:1009500001210291FFF71EFF02998DF8111000206E
:1009600006904FF46022059203908DF81C108DF8CC
:10097000100042F20040C4F20100019003A9FFF709
:10098000A5FC01980299FFF769FC08B080BD000042
:1009900080B586B04FF0005001210191FFF7DEFED7
:1009A000019900200090049005910290039002A903
:1009B000FFF7D0FD00980199FFF7AAFD06B080BDB2
:1009C00080B582B004200121FFF7E4FE00208DF8FD
:1009D00007001120ADF8040003208DF8060040F652
:1009E0000000C4F2010001A9FFF7F4FD02B080BDD0
:1009F00080B582B000200190FFF7E2FFFFF7A4FF6F
:100A0000FFF7C6FFFFE700F01BF8014640F2640065
:100A1000C2F200000180008800F036F84FF2A921F0
:100A2000C3F6365100F048F840F26001C2F200010E
:100A3000086000F005F801460020FFF7B5FDE2E789
:100A400080B582B042F20040C4F201000090002163
:100A5000012201920523FFF787FC00980199FFF717
:100A600041FDFFE742F20040C4F201000221FFF71E
:100A700013FC08B9FFE7F5E742F20040C4F20100B9
:100A8000FFF702FC02B080BD10F0004148BF4042B9
:100A9000B0FA80F310FA03F2C3F19D030BD051EAD0
:100AA000C35101EB1220530638BF704700F101001B
:100AB00008BF20F0010070474FF47F0C1CEAD012F1
:100AC0001EBF1CEAD11392EA0C0F93EA0C0F00F040
:100AD000478090EA010F48BF42F480724FF0004C0B
:100AE0004CEA00204CEA012102EB0302A0FB0113B7
:100AF000A2F50002002918BF43F001035B0028BFE4
:100B00004FEA330342EB22425FEA132C4CEBC25014
:100B10002EBFBCEB436FB2F57C0F70474FEA036CFE
:100B2000BCF1004F08BF20F00100B2F57C0F38BFC8
:100B300070470BD582F0FF0212F5803FC8BF7047A7
:100B400000F1C040D8BF00F00040704700F5000C35
:100B50005FEA4C0C48BF7047B0F1C04000F073B87A
:100B60000CEAD11390EA010F48BF42F4807262454B
:100B700038BF634504D280EA010000F000407047AE
:100B800010B500F01AF800BF8900013E00F007B868
:100B900000F009B85FEA410C5FEA1C6C08D080EAFB
:100BA000010000F050B85FEA400C5FEA1C6CF6D11F
:100BB0004FF00040A0F5800070470EF1020E2EF0BD
:100BC000030E5EF8044B244204D44FEA4102B2F112
:100BD0007F4F11D84FEA4003B3F17F4F0CD80ED1AD
:100BE0004FEAD07C0CEB4C0C0CF1020CB2F17F4FB5
:100BF00008BF4CEBD17C04E04FF0080C01E04FEA59
:100C0000D17C0CEB4C0324FA03F404F00704B4F198
:100C1000040C06D20EEB840CBDE810404CF0010C25
:100C20006047DFE80CF0070802024FF00040A0F533
:100C3000800010BD0846420018BFD2F1807288BF04
:100C400000F0004010BDFF2141EAD050C0057047C0
:100C5000600C000800000020680600005C0100082D
:04000005080001A14D
:00000001FF
