:020000040800F2
:1000000068060020A1010008A9010008AB01000852
:10001000AD010008AF010008B101000800000000B8
:10002000000000000000000000000000B301000814
:10003000B501000800000000B7010008B901000880
:10004000BB010008BB010008BB010008BB010008A0
:10005000BB010008BB01000811050008BB01000836
:10006000BB010008BB010008BB010008BB01000880
:10007000BB010008BB010008BB010008BB01000870
:10008000BB010008BB010008BB0100080000000024
:10009000000000000000000000000000BB0100089C
:1000A000BB010008BB010008BB010008BB01000840
:1000B000BB010008BB010008BB010008BB01000830
:1000C000BB010008BB010008BB010008BB01000820
:1000D000BB010008BB010008BB010008BB01000810
:1000E000BB010008BB010008BB01000800000000C4
:1000F0000000000000000000000000000000000000
:1001000000000000000000000000000000000000EF
:100110000000000000000000BB010008BB01000857
:1001200000F002F800F02CF80AA090E8000C8244DD
:100130008344AAF10107DA4501D100F021F8AFF2BA
:10014000090EBAE80F0013F0010F18BFFB1A43F0B5
:100150000103184714130000241300000023002497
:1001600000250026103A28BF78C1FBD8520728BFC7
:1001700030C148BF0B6070471FB51FBD10B510BD23
:1001800000F031F81146FFF7F7FF00F03FFF00F0F5
:100190004FF803B4FFF7F2FF03BC00F057F800007C
:1001A0000948804709480047FEE7FEE7FEE7FEE70B
:1001B000FEE7FEE7FEE7FEE7FEE7FEE70448054947
:1001C000054A064B70470000310B0008210100086A
:1001D00068000020680600206802002068020020F5
:1001E000704770477047754600F02CF8AE46050022
:1001F0006946534620F00700854618B020B5FFF742
:10020000DDFFBDE820404FF000064FF000074FF043
:1002100000084FF0000BAC46ACE8C009ACE8C009E0
:10022000ACE8C009ACE8C00921F007018D46704771
:1002300010B50446AFF300802046BDE81040FFF73C
:10024000A8BF0000004870470000002001491820A6
:10025000ABBEFEE7260002007047000082B00190AE
:100260008DF803109DF8030030B1FFE7019988680D
:1002700040F00100886005E00199886820F00100E5
:100280008860FFE702B0704781B000900098C06CB2
:1002900080B201B07047000082B001908DF8031069
:1002A00000208DF80200019800689DF803100842B4
:1002B00004D0FFE701208DF8020003E000208DF854
:1002C0000200FFE79DF8020002B0704784B003907F
:1002D0000291002001908DF803000398406801907E
:1002E00001984FF6FF61CFF6F07108400190029936
:1002F0000868097940EA01210198084301900198B2
:100300000399486003988068019001984FF2FD714D
:10031000CFF6F171084001900299C8688A681043CD
:10032000497940EA410101980843019001980399F5
:1003300088600398C06A0190019820F470000190D1
:100340000298007C411E9DF8030008438DF80300CD
:100350009DF80310019840EA01500190019803991B
:10036000C86204B07047000084B003908DF80B1091
:100370008DF80A208DF809300020019000909DF83A
:100380000B000A2821DBFFE70398C06801909DF865
:100390000B0000EB4000A0F11E01072088400090F8
:1003A00000990198884301909DF809009DF80B1071
:1003B00001EB41011E3988400090009901980843E3
:1003C000019001980399C8601DE0039800690190AD
:1003D0009DF80B0000EB4001072088400090009939
:1003E0000198884301909DF809009DF80B1001EBDE
:1003F00041018840009000990198084301900198BC
:1004000003990861FFE79DF80A00062820DCFFE752
:100410000398406B01909DF80A0000EB8000411F9B
:100420001F208840009000990198884301909DF812
:100430000B009DF80A1001EB8101053988400090FE
:10044000009901980843019001980399486347E097
:100450009DF80A000C2821DCFFE70398006B01904F
:100460009DF80A0000EB8000A0F123011F208840C6
:10047000009000990198884301909DF80B009DF829
:100480000A1001EB810123398840009000990198FE
:100490000843019001980399086320E00398C06A1B
:1004A00001909DF80A0000EB8000A0F141011F209F
:1004B0008840009000990198884301909DF80B00B6
:1004C0009DF80A1001EB81014139884000900099A4
:1004D00001980843019001980399C862FFE7FFE77C
:1004E00004B0704782B001908DF803109DF80300AE
:1004F00030B1FFE70199886840F4A000886005E00A
:100500000199886820F4A0008860FFE702B0704776
:1005100080B584B0012000F04DF8E0B3FFE740F66D
:100520000040C4F201000290042100F0CDF90298CD
:100530004FF4806100F0C8F900200390FFE70398B2
:1005400003281FDCFFE740F60040C4F201000090E2
:1005500040F60301019100F0C1F944F24020C0F2DD
:100560000F0000F0CBFC0098019900F0ADF94DF2BE
:100570009000C0F2030000F0C1FCFFE703980130D7
:100580000390DCE740F60040C4F201004FF4006144
:1005900000F0A4F9FFE7012000F002F804B080BDEC
:1005A00081B00090009840F21441C4F2010108604B
:1005B00001B0704783B0029000208DF807000090D2
:1005C00040F20040C4F20100006802990840009027
:1005D00040F21440C4F2010000680299084207D0BA
:1005E000FFE7009820B1FFE701208DF8070003E046
:1005F00000208DF80700FFE79DF8070003B0704763
:1006000082B001900020009040F20040C4F201004E
:10061000009001988079002859D0FFE7019802687E
:1006200040F20041C4F2010108689043086001985B
:10063000026840F20441C4F2010108689043086076
:100640000198017900980844009001980268009987
:100650000868104308600198026840F20841C4F23B
:1006600001010868904308600198026840F20C415B
:10067000C4F201010868904308600198407910288D
:1006800013D1FFE70198026840F20841C4F201016A
:100690000868104308600198026840F20C41C4F2F7
:1006A000010108681043086010E040F20040C4F205
:1006B0000100009001984179009808440090019849
:1006C00002680099086810430860FFE70BE0019892
:1006D0000179009808440090019802680099086820
:1006E00090430860FFE702B07047000082B08DF8C9
:1006F00007008DF80610002000909DF8060000F01D
:10070000030081000F2088400090009B9DF80600A8
:1007100000F0FC010822C4F2010288589843885076
:100720009DF807109DF8060000F003039B0001FAF6
:1007300003F300F0FC0188581843885002B070475A
:1007400088B00790069100200590049003900290D5
:10075000019000900698C07800F00F000590069870
:10076000C078C006002806D5FFE70698817805986E
:1007700008430590FFE70698007800284BD0FFE774
:1007800007980068019000200390FFE7039807286E
:100790003DD8FFE703990120884002900698008821
:1007A0000299084004900498029988422AD1FFE7F0
:1007B00003988000029002990F20884000900099D1
:1007C0000198884301900598029900FA01F1019877
:1007D000084301900698C078282806D1FFE70399BE
:1007E00001208840079948610BE00698C0784828A6
:1007F00006D1FFE703990120884007990861FFE7C8
:10080000FFE7FFE7FFE7039801300390BEE7019899
:1008100007990860FFE706980088B0F5807F50DBF5
:10082000FFE707984068019000200390FFE70398D6
:10083000072842D8FFE7039800F10801012088400B
:100840000290069800880299084004900498029942
:1008500088422DD1FFE703988000029002990F2073
:10086000884000900099019888430190059802996A
:1008700000FA01F10198084301900698C0782828F1
:1008800008D1FFE7039800F108010120884007998B
:100890004861FFE70698C078482808D1FFE7039829
:1008A00000F108010120884007990861FFE7FFE790
:1008B000FFE7039801300390B9E701980799486072
:1008C000FFE708B07047000082B00190ADF8021059
:1008D000BDF802000199486102B0704782B00190F2
:1008E000ADF80210BDF802000199086102B070472E
:1008F00084B003900020029001900F200090039894
:10090000C078C0B3FFE74EF60C50CEF2000000688E
:10091000C043C0F3022002900298C0F1040001908D
:1009200000980299C8400090039840780199884047
:100930000290039880780099014002980843029041
:100940000298000102900298039909784EF2004241
:10095000CEF2000288540398027802F01F010120B1
:1009600088404EF20011CEF2000141EAD20121F09E
:10097000030108600FE00398027802F01F010120D4
:1009800088404EF28011CEF2000141EAD20121F0FE
:1009900003010860FFE704B07047000081B00090D9
:1009A00000980021C0F2FA5108434EF60C51CEF2E5
:1009B0000001086001B0704782B001908DF803100B
:1009C0009DF8030048B1FFE7019A41F21C01C4F20F
:1009D000020108681043086008E0019A41F21C0116
:1009E000C4F20201086890430860FFE702B0704754
:1009F00082B001908DF803109DF8030048B1FFE725
:100A0000019A41F21801C4F202010868104308601B
:100A100008E0019A41F21801C4F20201086890430B
:100A20000860FFE702B0704780B500F001F880BDB4
:100A300084B000200390029041F20001C4F2020150
:100A4000086840F480300860FFE741F20000C4F21B
:100A50000200006800F40030029003980130039017
:100A6000FFE702990020019039B9FFE70398B0F53C
:100A7000A06018BF01200190FFE70198C00700287F
:100A8000E3D1FFE741F20000C4F2020000688003F6
:100A9000002803D5FFE70120029002E00020029029
:100AA000FFE7029801283FD1FFE741F20401C4F2B9
:100AB000020100910868086008680860086808601A
:100AC000086820F47C100860086840F498100860FA
:100AD00041F20001C4F20201086840F08070086031
:100AE000FFE741F20000C4F2020000688001002824
:100AF00001D4FFE7F5E741F20401C4F202010868FE
:100B000020F003000860086840F002000860FFE77A
:100B100041F20400C4F20200006800F00C00082852
:100B200001D0FFE7F4E700E0FFE704B07047000002
:100B300080B541F20002C4F20202106840F00100E8
:100B4000106041F20401C4F2020108680023CFF6EC
:100B5000FF031840086010684FF6FF73CFF6F66386
:100B600018401060106820F480201060086820F49D
:100B7000FE00086041F20801C4F202014FF41F00B8
:100B8000086041F22C01C4F2020100200860FFF766
:100B90004BFF4EF60851CEF200014FF000600860A6
:100BA00080BD000082B001908DF803109DF8030015
:100BB00030B1FFE70199088840F00100088005E0A6
:100BC0000199088820F001000880FFE702B0704713
:100BD00084B0039002910020ADF80600ADF8040047
:100BE000ADF802000399088C20F0010008840398F6
:100BF000008CADF8040003988088ADF802000398DB
:100C0000008BADF80600BDF8060020F07000ADF8CE
:100C10000600BDF8060020F00300ADF806000298BB
:100C20000188BDF806000843ADF80600BDF80400D1
:100C300020F00200ADF8040002980189BDF804001C
:100C40000843ADF8040002984188BDF80400084349
:100C5000ADF80400039842F60041C4F20101884255
:100C600020D0FFE7039843F20041C4F2010188421B
:100C700018D0FFE7039844F20001C4F20101884252
:100C800010D0FFE7039844F20041C4F2010188420A
:100C900008D0FFE7039844F60001C4F2010188423E
:100CA00035D1FFE7BDF8040020F00800ADF80400DE
:100CB00002984189BDF804000843ADF80400BDF86E
:100CC000040020F00400ADF8040002988188BDF80B
:100CD00004000843ADF80400BDF8020020F4807061
:100CE000ADF80200BDF8020020F40070ADF802007B
:100CF00002988189BDF802000843ADF8020002980D
:100D0000C189BDF802000843ADF80200FFE7BDF855
:100D1000020003998880BDF80600039908830298B1
:100D2000C08803998886BDF804000399088404B03C
:100D30007047000082B00190ADF802100020ADF8BD
:100D400000000198008BADF80000BDF8000020F015
:100D50000800ADF80000BDF80210BDF8000008431F
:100D6000ADF80000BDF800000199088302B070479B
:100D700083B0029001910020ADF802000298008833
:100D8000ADF80200029842F60041C4F20101884227
:100D900025D0FFE7029843F20041C4F201018842E6
:100DA0001DD0FFE70298B0F1804F18D0FFE70298FE
:100DB00040F20041C4F20001884210D0FFE70298DF
:100DC00040F60001C4F20001884208D0FFE7029813
:100DD00040F60041C4F2000188420ED1FFE7BDF8A1
:100DE000020020F07000ADF8020001984188BDF8C3
:100DF00002000843ADF80200FFE7029841F200014B
:100E0000C4F20001884216D0FFE7029841F2004187
:100E1000C4F2000188420ED0FFE7BDF8020020F4C2
:100E20004070ADF802000198C188BDF80200084387
:100E3000ADF80200FFE7BDF80200029908800198B2
:100E4000808802998885019800880299088502980F
:100E500042F60041C4F20101884220D0FFE7029827
:100E600043F20041C4F20101884218D0FFE7029822
:100E700044F20001C4F20101884210D0FFE7029859
:100E800044F20041C4F20101884208D0FFE7029811
:100E900044F60001C4F20101884205D1FFE7019840
:100EA000007A02990886FFE702990120888203B040
:100EB0007047000080B588B04FF4007001210291A6
:100EC000FFF796FD02998DF81110002006904FF45F
:100ED0006022059203908DF81C108DF8100042F2EC
:100EE0000040C4F20100019003A9FFF7EFF9019857
:100EF0000299FFF7B3F908B080BD000081B00090FF
:100F0000FFE70098411E009108B1FFE7F9E701B043
:100F10007047000080B586B0012101910846FFF7B7
:100F200067FD022000210291FFF7E0FB0199029882
:100F300004918DF816108DF8140008208DF8150016
:100F400004A8FFF75DFB4FF4C060FFF727FD019990
:100F5000029806228DF80C208DF80F108DF80D00E8
:100F60008DF80E0003A8FFF7C3FC06B080BD00009B
:100F700080B586B0042001210391FFF739FD039964
:100F80000820FFF735FD039910200090FFF730FD92
:100F900000988DF8170040F60740ADF814000320C4
:100FA00001908DF8160040F60040C4F2010005A93A
:100FB0000491FFF7C5FB0198039A049918238DF853
:100FC0001730ADF814208DF8160040F60000C4F27A
:100FD00001000290FFF7B4FB0298049900228DF8FB
:100FE00017200222ADF81420FFF7AAFB03980499FA
:100FF00028228DF81720ADF8140041F20000C4F249
:101000000100FFF79DFB06B080BD000080B586B0F3
:1010100000200590FFF7ACFF00F006F9FFF74AFF4C
:10102000FFF778FF40F60040C4F201004FF4006182
:10103000FFF754FCFFE700F0D3F8014640F26000F0
:10104000C2F2000004900180008800F029F940F20B
:101050000E41C3F6187100F03BF900F005F90146A6
:10106000049840F26202C2F2000211800088012856
:101070002FDBFFE740F26000C2F20000008840F280
:10108000DB51884225DCFFE740F26200C2F200003B
:101090000088C0F5617140F26400C2F20000018076
:1010A000008800F07FF840F60040C4F20100039091
:1010B0000421FFF713FC03984FF48061FFF704FC51
:1010C00003980221FFF70AFC03980121FFF7FCFBBC
:1010D00066E040F26000C2F20000008840F2DC519D
:1010E000884223DBFFE740F26000C2F20000008884
:1010F00040F6C311884219DCFFE7002000F052F8E7
:1011000040F60040C4F2010002900421FFF7DCFB2E
:1011100002984FF48061FFF7D7FB02980121FFF797
:10112000DDFB02980221FFF7CFFB38E040F26000C0
:10113000C2F20000008840F6C41188422EDBFFE7AF
:1011400040F26000C2F200000088B0F57A6F25DA44
:10115000FFE740F26200C2F200000088A0F2AA514C
:1011600040F26600C2F200000180008800F01AF828
:1011700040F60040C4F2010001904FF48061FFF797
:10118000ADFB01980421FFF79FFB01980221FFF7B7
:10119000A5FB01980121FFF797FBFFE7FFE7FFE7BA
:1011A00049E7000080B586B0ADF816006020ADF8C4
:1011B00004000020ADF80C000120ADF80600BDF8D9
:1011C0001600ADF80A004FF08040009001A9FFF72B
:1011D000FFFC00980821FFF7ADFD06B080BD0000C0
:1011E00080B582B042F20040C4F2010000900122BA
:1011F000019205231146FFF7B7F800980199FFF710
:1012000071F9FFE742F20040C4F201000221FFF74A
:1012100043F808B9FFE7F5E742F20040C4F20100E5
:10122000FFF732F802B080BD80B586B0012102918F
:101230000846FFF7C1FB0020ADF81200ADF80E0024
:1012400040F65F10ADF810000A20ADF80C004FF02A
:101250008040019003A9FFF78BFD01980299FFF7E9
:10126000A1FC06B080BD000041000B0ED3F19E0230
:1012700008D950F400034FEA032323FA02F048BFD1
:101280004042704710B500F0A4F800BF4992248096
:10129000002070476FF0004282EA20007047000093
:1012A00010F0004148BF4042B0FA80F310FA03F258
:1012B000C3F19D030BD051EAC35101EB1220530639
:1012C00038BF704700F1010008BF20F001007047EF
:1012D0004FF47F0C1CEAD0121EBF1CEAD11392EA15
:1012E0000C0F93EA0C0F00F0478090EA010F48BF03
:1012F00042F480724FF0004C4CEA00204CEA01218D
:1013000002EB0302A0FB0113A2F50002002918BFA3
:1013100043F001035B0028BF4FEA330342EB224254
:101320005FEA132C4CEBC2502EBFBCEB436FB2F5FF
:101330007C0F70474FEA036CBCF1004F08BF20F0F0
:101340000100B2F57C0F38BF70470BD582F0FF0269
:1013500012F5803FC8BF704700F1C040D8BF00F011
:101360000040704700F5000C5FEA4C0C48BF704726
:10137000B0F1C04000F073B80CEAD11390EA010F4D
:1013800048BF42F48072624538BF634504D280EAA8
:10139000010000F00040704710B500F01AF800BFDF
:1013A0008900013E00F007B800F009B85FEA410C7F
:1013B0005FEA1C6C08D080EA010000F050B85FEAD8
:1013C000400C5FEA1C6CF6D14FF00040A0F58000A5
:1013D00070470EF1020E2EF0030E5EF8044B24420D
:1013E00004D44FEA4102B2F17F4F11D84FEA4003D3
:1013F000B3F17F4F0CD80ED14FEAD07C0CEB4C0CE4
:101400000CF1020CB2F17F4F08BF4CEBD17C04E031
:101410004FF0080C01E04FEAD17C0CEB4C0324FAAE
:1014200003F404F00704B4F1040C06D20EEB840CB0
:10143000BDE810404CF0010C6047DFE80CF00708F5
:1014400002024FF00040A0F5800010BD08464200A7
:1014500018BFD2F1807288BF00F0004010BDFF219C
:1014600041EAD050C0057047781400080000002001
:08147000680600005C010008A1
:04000005080001A14D
:00000001FF
