:020000040800F2
:1000000080060020BD010008C5010008C7010008E6
:10001000C9010008CB010008CD0100080000000064
:10002000000000000000000000000000CF010008F8
:10003000D101000800000000D3010008D50100082C
:10004000D7010008D7010008D7010008D701000830
:10005000D7010008D7010008D7010008D701000820
:10006000D7010008D7010008D7010008D701000810
:10007000D7010008D7010008D7010008D701000800
:10008000D7010008D7010008D701000800000000D0
:10009000000000000000000000000000D701000880
:1000A000D7010008D7010008D7010008D7010008D0
:1000B000D7010008D7010008D7010008D7010008C0
:1000C000D7010008D7010008D7010008D7010008B0
:1000D000D7010008D7010008D7010008D7010008A0
:1000E000D7010008D7010008D70100080000000070
:1000F0000000000000000000000000000000000000
:1001000000000000000000000000000000000000EF
:100110000000000000000000D7010008D70100081F
:1001200000F002F800F03AF80AA090E8000C8244CF
:100130008344AAF10107DA4501D100F02FF8AFF2AC
:10014000090EBAE80F0013F0010F18BFFB1A43F0B5
:1001500001031847A0030000C0030000103A24BFA9
:1001600078C878C1FAD8520724BF30C830C144BF1C
:1001700004680C607047000000230024002500265E
:10018000103A28BF78C1FBD8520728BF30C148BFFA
:100190000B6070471FB51FBD10B510BD00F031F8E2
:1001A0001146FFF7F7FF00F04DF900F04FF803B4E8
:1001B000FFF7F2FF03BC00F057F800000948804742
:1001C00009480047FEE7FEE7FEE7FEE7FEE7FEE739
:1001D000FEE7FEE7FEE7FEE704480549054A064B51
:1001E00070470000A90300082101000880000020DA
:1001F00080060020800200208002002070477047A7
:100200007047754600F02CF8AE4605006946534627
:1002100020F00700854618B020B5FFF7DDFFBDE8E8
:1002200020404FF000064FF000074FF000084FF05D
:10023000000BAC46ACE8C009ACE8C009ACE8C009AA
:10024000ACE8C00921F007018D46704710B504469F
:10025000AFF300802046BDE81040FFF7A8BF0000C4
:10026000004870471800002001491820ABBEFEE787
:10027000260002007047000082B00190ADF8021025
:10028000BDF802000199486102B0704782B0019048
:10029000ADF80210BDF802000199086102B0704784
:1002A00080B500F001F880BD84B00020039002907A
:1002B00041F20001C4F20201086840F48030086095
:1002C000FFE741F20000C4F20200006800F40030D1
:1002D0000290039801300390FFE7029900200190FB
:1002E00039B9FFE70398B0F5A06018BF012001906D
:1002F000FFE70198C0070028E3D1FFE741F20000C3
:10030000C4F2020000688003002803D5FFE7012043
:10031000029002E000200290FFE7029801283FD1FE
:10032000FFE741F20401C4F202010091086808608D
:100330000868086008680860086820F47C10086095
:10034000086840F49810086041F20001C4F202010C
:10035000086840F080700860FFE741F20000C4F2D6
:10036000020000688001002801D4FFE7F5E741F2B0
:100370000401C4F20201086820F003000860086864
:1003800040F002000860FFE741F20400C4F20200FE
:10039000006800F00C00082801D0FFE7F4E700E057
:1003A000FFE704B07047000080B541F20002C4F2DC
:1003B0000202106840F00100106041F20401C4F232
:1003C000020108680023CFF6FF0318400860106898
:1003D0004FF6FF73CFF6F66318401060106820F4F4
:1003E00080201060086820F4FE00086041F20801D7
:1003F000C4F202014FF41F00086041F22C01C4F264
:10040000020100200860FFF74BFF4EF60851CEF2C4
:1004100000014FF00060086080BD000081B00090D6
:10042000009880886FF35F2001B0704782B0019020
:10043000ADF80210BDF802006FF35F2001998880CB
:1004400002B0704780B582B000200190FFE740F213
:100450000000C2F2000000F02BF843F60000C4F2E6
:100460000100FFF7DBFF014640F27800C2F2000016
:1004700001800088312808D1FFE740F60040C4F22F
:1004800001000121FFF702FF10E040F27800C2F204
:1004900000000088302808D1FFE740F60040C4F291
:1004A00001000121FFF7E8FEFFE7FFE7CFE70000CB
:1004B00080B582B00190FFE701980078B8B1FFE7FE
:1004C000FFE743F60000C4F2010000884006002860
:1004D00001D4FFE7F5E70198017843F60000C4F284
:1004E0000100FFF7A3FF019801300190E4E702B09B
:1004F00080BD00001405000800000020140000006A
:100500005C010008280500081800002068060000AB
:10051000780100084962726168696D20536F6D75DA
:080520006E63750A0000000083
:04000005080001BD31
:00000001FF
