:020000040800F2
:1000000060060020A1010008A9010008AB0100085A
:10001000AD010008AF010008B101000800000000B8
:10002000000000000000000000000000B301000814
:10003000B501000800000000B7010008B901000880
:10004000BB010008BB010008BB010008BB010008A0
:10005000BB010008BB010008BB010008BB01000890
:10006000BB010008BB010008BB010008BB01000880
:10007000BB010008BB010008BB010008BB01000870
:10008000BB010008BB010008BB0100080000000024
:10009000000000000000000000000000BB0100089C
:1000A000BB010008BB010008BB010008BB01000840
:1000B000BB010008BB010008BB010008BB01000830
:1000C000BB010008BB010008BB010008BB01000820
:1000D000BB010008BB010008BB010008BB01000810
:1000E000BB010008BB010008BB01000800000000C4
:1000F0000000000000000000000000000000000000
:1001000000000000000000000000000000000000EF
:100110000000000000000000BB010008BB01000857
:1001200000F002F800F02CF80AA090E8000C8244DD
:100130008344AAF10107DA4501D100F021F8AFF2BA
:10014000090EBAE80F0013F0010F18BFFB1A43F0B5
:1001500001031847AC080000BC080000002300247D
:1001600000250026103A28BF78C1FBD8520728BFC7
:1001700030C148BF0B6070471FB51FBD10B510BD23
:1001800000F031F81146FFF7F7FF00F0CFFB00F069
:100190004FF803B4FFF7F2FF03BC00F057F800007C
:1001A0000948804709480047FEE7FEE7FEE7FEE70B
:1001B000FEE7FEE7FEE7FEE7FEE7FEE70448054947
:1001C000054A064B704700005D0500082101000844
:1001D0006000002060060020600200206002002015
:1001E000704770477047754600F02CF8AE46050022
:1001F0006946534620F00700854618B020B5FFF742
:10020000DDFFBDE820404FF000064FF000074FF043
:1002100000084FF0000BAC46ACE8C009ACE8C009E0
:10022000ACE8C009ACE8C00921F007018D46704771
:1002300010B50446AFF300802046BDE81040FFF73C
:10024000A8BF0000004870470000002001491820A6
:10025000ABBEFEE7260002007047000088B00790A2
:100260000691002005900490039002900190009068
:100270000698C07800F00F0005900698C078C00678
:10028000002806D5FFE70698817805980843059071
:10029000FFE70698007800284BD0FFE70798006832
:1002A000019000200390FFE7039807283DD8FFE75F
:1002B000039901208840029006980088029908401E
:1002C00004900498029988422AD1FFE7039880009D
:1002D000029002990F20884000900099019888436D
:1002E00001900598029900FA01F1019808430190E4
:1002F0000698C078282806D1FFE703990120884096
:10030000079948610BE00698C078482806D1FFE7B6
:1003100003990120884007990861FFE7FFE7FFE79D
:10032000FFE7039801300390BEE701980799086042
:10033000FFE706980088B0F5807F50DBFFE707985D
:100340004068019000200390FFE70398072842D8F7
:10035000FFE7039800F10801012088400290069809
:1003600000880299084004900498029988422DD18F
:10037000FFE703988000029002990F2088400090C8
:1003800000990198884301900598029900FA01F1BB
:100390000198084301900698C078282808D1FFE703
:1003A000039800F108010120884007994861FFE7A0
:1003B0000698C078482808D1FFE7039800F10801A3
:1003C0000120884007990861FFE7FFE7FFE70398EE
:1003D00001300390B9E7019807994860FFE708B03A
:1003E0007047000082B001908DF803109DF8030063
:1003F00048B1FFE7019A41F21C01C4F2020108680A
:100400001043086008E0019A41F21C01C4F20201A5
:10041000086890430860FFE702B0704782B001901F
:100420008DF803109DF8030048B1FFE7019A41F2EF
:100430001801C4F2020108681043086008E0019A3C
:1004400041F21801C4F20201086890430860FFE716
:1004500002B0704780B500F001F880BD84B0002084
:100460000390029041F20001C4F20201086840F4D6
:1004700080300860FFE741F20000C4F2020000682B
:1004800000F400300290039801300390FFE70299D6
:100490000020019039B9FFE70398B0F5A06018BFBC
:1004A00001200190FFE70198C0070028E3D1FFE792
:1004B00041F20000C4F2020000688003002803D566
:1004C000FFE70120029002E000200290FFE702987F
:1004D00001283FD1FFE741F20401C4F2020100917B
:1004E000086808600868086008680860086820F400
:1004F0007C100860086840F49810086041F2000120
:10050000C4F20201086840F080700860FFE741F221
:100510000000C4F2020000688001002801D4FFE757
:10052000F5E741F20401C4F20201086820F003007B
:100530000860086840F002000860FFE741F204002C
:10054000C4F20200006800F00C00082801D0FFE7A8
:10055000F4E700E0FFE704B07047000080B541F227
:100560000002C4F20202106840F00100106041F283
:100570000401C4F2020108680023CFF6FF0318400B
:10058000086010684FF6FF73CFF6F66318401060EE
:10059000106820F480201060086820F4FE000860D5
:1005A00041F20801C4F202014FF41F00086041F259
:1005B0002C01C4F2020100200860FFF74BFF4EF649
:1005C0000851CEF200014FF00060086080BD0000CD
:1005D00082B001908DF803109DF8030030B1FFE761
:1005E0000199088840F00100088005E00199088819
:1005F00020F001000880FFE702B0704784B003904C
:1006000002910020ADF80600ADF80400ADF802003C
:100610000399088C20F0010008840398008CADF841
:10062000040003988088ADF802000398008BADF8B1
:100630000600BDF8060020F07000ADF80600BDF819
:10064000060020F00300ADF8060002980188BDF80E
:1006500006000843ADF80600BDF8040020F00200D3
:10066000ADF8040002980189BDF804000843ADF814
:10067000040002984188BDF804000843ADF8040066
:10068000039842F60041C4F20101884220D0FFE7FE
:10069000039843F20041C4F20101884218D0FFE7F9
:1006A000039844F20001C4F20101884210D0FFE730
:1006B000039844F20041C4F20101884208D0FFE7E8
:1006C000039844F60001C4F20101884235D1FFE7E6
:1006D000BDF8040020F00800ADF80400029841893C
:1006E000BDF804000843ADF80400BDF8040020F094
:1006F0000400ADF8040002988188BDF804000843A6
:10070000ADF80400BDF8020020F48070ADF80200DE
:10071000BDF8020020F40070ADF802000298818953
:10072000BDF802000843ADF802000298C189BDF887
:1007300002000843ADF80200FFE7BDF8020003998C
:100740008880BDF80600039908830298C088039941
:100750008886BDF804000399088404B0704700003F
:1007600082B00190ADF802100020ADF800000198B1
:10077000008BADF80000BDF8000020F00800ADF8D7
:100780000000BDF80210BDF800000843ADF80000FD
:10079000BDF800000199088302B0704783B0029051
:1007A00001910020ADF8020002980088ADF8020027
:1007B000029842F60041C4F20101884225D0FFE7C9
:1007C000029843F20041C4F2010188421DD0FFE7C4
:1007D0000298B0F1804F18D0FFE7029840F2004134
:1007E000C4F20001884210D0FFE7029840F60001F1
:1007F000C4F20001884208D0FFE7029840F60041A9
:10080000C4F2000188420ED1FFE7BDF8020020F0DB
:100810007000ADF8020001984188BDF8020008435D
:10082000ADF80200FFE7029841F20001C4F20001B6
:10083000884216D0FFE7029841F20041C4F200015D
:1008400088420ED0FFE7BDF8020020F44070ADF8FA
:1008500002000198C188BDF802000843ADF802000B
:10086000FFE7BDF80200029908800198808802998C
:1008700088850198008802990885029842F600410F
:10088000C4F20101884220D0FFE7029843F2004100
:10089000C4F20101884218D0FFE7029844F2000137
:1008A000C4F20101884210D0FFE7029844F20041EF
:1008B000C4F20101884208D0FFE7029844F6000123
:1008C000C4F20101884205D1FFE70198007A02993C
:1008D0000886FFE702990120888203B07047000074
:1008E00081B00090FFE70098411E009108B1FFE73A
:1008F000F9E701B07047000080B582B00420012103
:100900000091FFF78BFD009818218DF80710ADF8C6
:10091000040003208DF8060040F60000C4F2010038
:1009200001A9FFF79BFC02B080BD000080B582B03A
:1009300000200190FFF7E0FF00F040F8FFE740F2F1
:10094000572000F01DF840F60010C0F23D00009066
:10095000FFF7C6FF40F2AF4000F012F80098FFF733
:10096000BFFF40F2077000F00BF80098FFF7B8FFE8
:1009700040F65F1000F004F80098FFF7B1FFDEE7E3
:1009800080B586B0ADF816006020ADF804000120F7
:10099000ADF806000020ADF80C00BDF81600ADF86B
:1009A0000A004FF08040009001A9FFF727FE009851
:1009B0000821FFF7D5FE06B080BD000080B586B0E7
:1009C000012102910846FFF70DFD0020ADF812004D
:1009D000ADF80E0040F65F11ADF810100A21ADF829
:1009E0000C108DF814004FF08040019003A9FFF720
:1009F000D5FE01980299FFF7EBFD06B080BD00001F
:100A0000100A000800000020600600005C010008D9
:04000005080001A14D
:00000001FF
