:020000040800F2
:1000000060060020A1010008A9010008AB0100085A
:10001000AD010008AF010008B101000800000000B8
:10002000000000000000000000000000B301000814
:10003000B501000800000000B7010008B901000880
:10004000BB010008BB010008BB010008BB010008A0
:10005000BB010008BB010008BB010008BB01000890
:10006000BB010008BB010008BB010008BB01000880
:10007000BB010008BB010008BB010008BB01000870
:10008000BB010008BB010008BB0100080000000024
:10009000000000000000000000000000BB0100089C
:1000A000BB010008BB010008BB010008BB01000840
:1000B000BB010008BB010008BB010008BB01000830
:1000C000BB010008BB010008BB010008BB01000820
:1000D000BB010008BB010008BB010008BB01000810
:1000E000BB010008BB010008BB01000800000000C4
:1000F0000000000000000000000000000000000000
:1001000000000000000000000000000000000000EF
:100110000000000000000000BB010008BB01000857
:1001200000F002F800F02CF80AA090E8000C8244DD
:100130008344AAF10107DA4501D100F021F8AFF2BA
:10014000090EBAE80F0013F0010F18BFFB1A43F0B5
:100150000103184738060000480600000023002469
:1001600000250026103A28BF78C1FBD8520728BFC7
:1001700030C148BF0B6070471FB51FBD10B510BD23
:1001800000F031F81146FFF7F7FF00F0BFFA00F07A
:100190004FF803B4FFF7F2FF03BC00F057F800007C
:1001A0000948804709480047FEE7FEE7FEE7FEE70B
:1001B000FEE7FEE7FEE7FEE7FEE7FEE70448054947
:1001C000054A064B7047000021060008210100087F
:1001D0006000002060060020600200206002002015
:1001E000704770477047754600F02CF8AE46050022
:1001F0006946534620F00700854618B020B5FFF742
:10020000DDFFBDE820404FF000064FF000074FF043
:1002100000084FF0000BAC46ACE8C009ACE8C009E0
:10022000ACE8C009ACE8C00921F007018D46704771
:1002300010B50446AFF300802046BDE81040FFF73C
:10024000A8BF0000004870470000002001491820A6
:10025000ABBEFEE7260002007047000082B00190AE
:100260008DF803109DF8030060B1FFE701990120AC
:1002700000FA01F247F20041C4F20001086810439D
:1002800008600BE00199012000FA01F247F20041F9
:10029000C4F20001086890430860FFE702B07047AD
:1002A00084B00390029100200190009047F2004139
:1002B000C4F2000108680190039A40F6FE7000FA4B
:1002C00002F2019890430190029A1068D2F804C09B
:1002D0009368D26840EA0C001843104300900098DD
:1002E000039A00FA02F20198104301900198086005
:1002F00004B0704783B00290ADF806100020009063
:1003000047F20040C4F200000090029800990844AF
:1003100008300090BDF806000099086003B07047EF
:1003200088B00790069100200590049003900290F9
:10033000019000900698C07800F00F000590069894
:10034000C078C006002806D5FFE706988178059892
:1003500008430590FFE70698007800284BD0FFE798
:1003600007980068019000200390FFE70398072892
:100370003DD8FFE703990120884002900698008845
:100380000299084004900498029988422AD1FFE714
:1003900003988000029002990F20884000900099F5
:1003A0000198884301900598029900FA01F101989B
:1003B000084301900698C078282806D1FFE70399E2
:1003C00001208840079948610BE00698C0784828CA
:1003D00006D1FFE703990120884007990861FFE7EC
:1003E000FFE7FFE7FFE7039801300390BEE70198BE
:1003F00007990860FFE706980088B0F5807F50DB1A
:10040000FFE707984068019000200390FFE70398FA
:10041000072842D8FFE7039800F10801012088402F
:100420000290069800880299084004900498029966
:1004300088422DD1FFE703988000029002990F2097
:10044000884000900099019888430190059802998E
:1004500000FA01F10198084301900698C078282815
:1004600008D1FFE7039800F10801012088400799AF
:100470004861FFE70698C078482808D1FFE703984D
:1004800000F108010120884007990861FFE7FFE7B4
:10049000FFE7039801300390B9E701980799486096
:1004A000FFE708B07047000082B001908DF803109C
:1004B0009DF8030048B1FFE7019A41F21C01C4F224
:1004C000020108681043086008E0019A41F21C012B
:1004D000C4F20201086890430860FFE702B0704769
:1004E00082B001908DF803109DF8030048B1FFE73A
:1004F000019A41F21801C4F2020108681043086031
:1005000008E0019A41F21801C4F202010868904320
:100510000860FFE702B0704780B500F001F880BDC9
:1005200084B000200390029041F20001C4F2020165
:10053000086840F480300860FFE741F20000C4F230
:100540000200006800F4003002900398013003902C
:10055000FFE702990020019039B9FFE70398B0F551
:10056000A06018BF01200190FFE70198C007002894
:10057000E3D1FFE741F20000C4F20200006880030B
:10058000002803D5FFE70120029002E0002002903E
:10059000FFE7029801283FD1FFE741F20401C4F2CE
:1005A000020100910868086008680860086808602F
:1005B000086820F47C100860086840F4981008600F
:1005C00041F20001C4F20201086840F08070086046
:1005D000FFE741F20000C4F2020000688001002839
:1005E00001D4FFE7F5E741F20401C4F20201086813
:1005F00020F003000860086840F002000860FFE790
:1006000041F20400C4F20200006800F00C00082867
:1006100001D0FFE7F4E700E0FFE704B07047000017
:1006200080B541F20002C4F20202106840F00100FD
:10063000106041F20401C4F2020108680023CFF601
:10064000FF031840086010684FF6FF73CFF6F6639B
:1006500018401060106820F480201060086820F4B2
:10066000FE00086041F20801C4F202014FF41F00CD
:10067000086041F22C01C4F2020100200860FFF77B
:100680004BFF4EF60851CEF200014FF000600860BB
:1006900080BD000080B586B04FF00050012101916F
:1006A000FFF702FF00200090049005900290039055
:1006B00002A9FFF7F5FD00980199FFF7CFFD06B0FD
:1006C00080BD000081B00090FFE70098411E0091BE
:1006D00008B1FFE7F9E701B07047000080B582B0CC
:1006E00004200121FFF7FCFE00208DF807001020F8
:1006F000ADF8040003208DF8060040F60000C4F2B7
:10070000010001A9FFF70CFE02B080BD80B582B0E8
:1007100000200190FFF7E2FFFFF7BCFFFFE700209A
:10072000ADF80200FFE7BDF8020040F6FE71884216
:1007300010DCFFE7BDF802100020FFF7DBFD41F2FF
:100740008830FFF7BFFFFFE7BDF802000130ADF8CA
:100750000200E8E740F6FF70ADF80000FFE7BDF8E3
:100760000000012810DBFFE7BDF800100020FFF7B4
:10077000C1FD41F28830FFF7A5FFFFE7BDF800009B
:100780000138ADF80000EAE7C9E700009C0700085F
:0C07900000000020600600005C01000872
:04000005080001A14D
:00000001FF
